{
  "contracts/ProposalVote_Factory.sol": {
    "ProposalVoteFactory": {
      "abi": [
        {
          "inputs": [
            {
              "internalType": "address",
              "name": "_proposalContract",
              "type": "address"
            },
            {
              "internalType": "uint8",
              "name": "_index",
              "type": "uint8"
            }
          ],
          "name": "VoteOnAProposal",
          "outputs": [],
          "stateMutability": "nonpayable",
          "type": "function"
        },
        {
          "inputs": [
            {
              "internalType": "address",
              "name": "_proposalContract",
              "type": "address"
            },
            {
              "internalType": "string",
              "name": "_name",
              "type": "string"
            },
            {
              "internalType": "string",
              "name": "_desc",
              "type": "string"
            },
            {
              "internalType": "uint16",
              "name": "_quorum",
              "type": "uint16"
            }
          ],
          "name": "createAProposal",
          "outputs": [],
          "stateMutability": "nonpayable",
          "type": "function"
        },
        {
          "inputs": [],
          "name": "deployClaimFaucet",
          "outputs": [
            {
              "internalType": "address",
              "name": "contractAddress_",
              "type": "address"
            }
          ],
          "stateMutability": "nonpayable",
          "type": "function"
        },
        {
          "inputs": [],
          "name": "getAllContractsDeployed",
          "outputs": [
            {
              "components": [
                {
                  "internalType": "address",
                  "name": "deployer",
                  "type": "address"
                },
                {
                  "internalType": "address",
                  "name": "deployedContract",
                  "type": "address"
                }
              ],
              "internalType": "struct ProposalVoteFactory.DeployedContractInfo[]",
              "name": "",
              "type": "tuple[]"
            }
          ],
          "stateMutability": "view",
          "type": "function"
        },
        {
          "inputs": [
            {
              "internalType": "address",
              "name": "_proposalContract",
              "type": "address"
            }
          ],
          "name": "getAllProposals",
          "outputs": [
            {
              "components": [
                {
                  "internalType": "string",
                  "name": "name",
                  "type": "string"
                },
                {
                  "internalType": "string",
                  "name": "description",
                  "type": "string"
                },
                {
                  "internalType": "uint16",
                  "name": "voteCount",
                  "type": "uint16"
                },
                {
                  "internalType": "address[]",
                  "name": "voters",
                  "type": "address[]"
                },
                {
                  "internalType": "uint16",
                  "name": "quorum",
                  "type": "uint16"
                },
                {
                  "internalType": "enum PropsStatus",
                  "name": "status",
                  "type": "uint8"
                }
              ],
              "internalType": "struct Proposal[]",
              "name": "",
              "type": "tuple[]"
            }
          ],
          "stateMutability": "view",
          "type": "function"
        },
        {
          "inputs": [
            {
              "internalType": "address",
              "name": "_proposalContract",
              "type": "address"
            },
            {
              "internalType": "uint8",
              "name": "_index",
              "type": "uint8"
            }
          ],
          "name": "getAsingleProposal",
          "outputs": [
            {
              "internalType": "string",
              "name": "name_",
              "type": "string"
            },
            {
              "internalType": "string",
              "name": "desc_",
              "type": "string"
            },
            {
              "internalType": "uint16",
              "name": "count_",
              "type": "uint16"
            },
            {
              "internalType": "address[]",
              "name": "voters_",
              "type": "address[]"
            },
            {
              "internalType": "uint16",
              "name": "quorum_",
              "type": "uint16"
            },
            {
              "internalType": "enum PropsStatus",
              "name": "status_",
              "type": "uint8"
            }
          ],
          "stateMutability": "view",
          "type": "function"
        },
        {
          "inputs": [],
          "name": "getLengthOfDeployedContract",
          "outputs": [
            {
              "internalType": "uint256",
              "name": "",
              "type": "uint256"
            }
          ],
          "stateMutability": "view",
          "type": "function"
        },
        {
          "inputs": [
            {
              "internalType": "uint8",
              "name": "_index",
              "type": "uint8"
            }
          ],
          "name": "getUserDeployedContractByIndex",
          "outputs": [
            {
              "internalType": "address",
              "name": "deployer_",
              "type": "address"
            },
            {
              "internalType": "address",
              "name": "deployedContract_",
              "type": "address"
            }
          ],
          "stateMutability": "view",
          "type": "function"
        },
        {
          "inputs": [],
          "name": "getUserDeployedContracts",
          "outputs": [
            {
              "components": [
                {
                  "internalType": "address",
                  "name": "deployer",
                  "type": "address"
                },
                {
                  "internalType": "address",
                  "name": "deployedContract",
                  "type": "address"
                }
              ],
              "internalType": "struct ProposalVoteFactory.DeployedContractInfo[]",
              "name": "",
              "type": "tuple[]"
            }
          ],
          "stateMutability": "view",
          "type": "function"
        }
      ],
      "evm": {
        "bytecode": {
          "linkReferences": {},
          "object": "6080604052348015600f57600080fd5b50613a908061001f6000396000f3fe608060405234801561001057600080fd5b50600436106100935760003560e01c80639853d922116100665780639853d92214610138578063ba3ccf0914610168578063bdb383ec14610186578063c707f0cc146101a4578063ca5c9c58146101c057610093565b80632d4747a8146100985780635aefdc3b146100b45780637dcd0037146100e55780638ff2dd861461011a575b600080fd5b6100b260048036038101906100ad9190610d18565b6101de565b005b6100ce60048036038101906100c99190610df0565b610253565b6040516100dc929190610e2c565b60405180910390f35b6100ff60048036038101906100fa9190610e55565b61040c565b60405161011196959493929190611058565b60405180910390f35b6101226104b7565b60405161012f91906111ac565b60405180910390f35b610152600480360381019061014d91906111ce565b6105fe565b60405161015f919061142b565b60405180910390f35b61017061067b565b60405161017d9190611466565b60405180910390f35b61018e610688565b60405161019b91906111ac565b60405180910390f35b6101be60048036038101906101b99190610e55565b610793565b005b6101c8610802565b6040516101d59190611481565b60405180910390f35b8373ffffffffffffffffffffffffffffffffffffffff1663bcf2e0268484846040518463ffffffff1660e01b815260040161021b9392919061149c565b600060405180830381600087803b15801561023557600080fd5b505af1158015610249573d6000803e3d6000fd5b5050505050505050565b6000806000803373ffffffffffffffffffffffffffffffffffffffff1673ffffffffffffffffffffffffffffffffffffffff168152602001908152602001600020805490508360ff16106102dc576040517f08c379a00000000000000000000000000000000000000000000000000000000081526004016102d39061152d565b60405180910390fd5b60008060003373ffffffffffffffffffffffffffffffffffffffff1673ffffffffffffffffffffffffffffffffffffffff1681526020019081526020016000208460ff16815481106103315761033061154d565b5b90600052602060002090600202016040518060400160405290816000820160009054906101000a900473ffffffffffffffffffffffffffffffffffffffff1673ffffffffffffffffffffffffffffffffffffffff1673ffffffffffffffffffffffffffffffffffffffff1681526020016001820160009054906101000a900473ffffffffffffffffffffffffffffffffffffffff1673ffffffffffffffffffffffffffffffffffffffff1673ffffffffffffffffffffffffffffffffffffffff16815250509050806000015192508060200151915050915091565b606080600060606000808773ffffffffffffffffffffffffffffffffffffffff166367d7a419886040518263ffffffff1660e01b815260040161044f919061158b565b600060405180830381865afa15801561046c573d6000803e3d6000fd5b505050506040513d6000823e3d601f19601f82011682018060405250810190610495919061172d565b809650819750829850839950849a50859b505050505050509295509295509295565b60606000803373ffffffffffffffffffffffffffffffffffffffff1673ffffffffffffffffffffffffffffffffffffffff168152602001908152602001600020805480602002602001604051908101604052809291908181526020016000905b828210156105f557838290600052602060002090600202016040518060400160405290816000820160009054906101000a900473ffffffffffffffffffffffffffffffffffffffff1673ffffffffffffffffffffffffffffffffffffffff1673ffffffffffffffffffffffffffffffffffffffff1681526020016001820160009054906101000a900473ffffffffffffffffffffffffffffffffffffffff1673ffffffffffffffffffffffffffffffffffffffff1673ffffffffffffffffffffffffffffffffffffffff168152505081526020019060010190610517565b50505050905090565b60608173ffffffffffffffffffffffffffffffffffffffff1663cceb68f56040518163ffffffff1660e01b8152600401600060405180830381865afa15801561064b573d6000803e3d6000fd5b505050506040513d6000823e3d601f19601f8201168201806040525081019061067491906119ed565b9050919050565b6000600180549050905090565b60606001805480602002602001604051908101604052809291908181526020016000905b8282101561078a57838290600052602060002090600202016040518060400160405290816000820160009054906101000a900473ffffffffffffffffffffffffffffffffffffffff1673ffffffffffffffffffffffffffffffffffffffff1673ffffffffffffffffffffffffffffffffffffffff1681526020016001820160009054906101000a900473ffffffffffffffffffffffffffffffffffffffff1673ffffffffffffffffffffffffffffffffffffffff1673ffffffffffffffffffffffffffffffffffffffff1681525050815260200190600101906106ac565b50505050905090565b8173ffffffffffffffffffffffffffffffffffffffff16635521e3bf826040518263ffffffff1660e01b81526004016107cc919061158b565b600060405180830381600087803b1580156107e657600080fd5b505af11580156107fa573d6000803e3d6000fd5b505050505050565b60008073ffffffffffffffffffffffffffffffffffffffff163373ffffffffffffffffffffffffffffffffffffffff1603610872576040517f08c379a000000000000000000000000000000000000000000000000000000000815260040161086990611a82565b60405180910390fd5b600060405161088090610ad3565b604051809103906000f08015801561089c573d6000803e3d6000fd5b5090508091506108aa610ae0565b33816000019073ffffffffffffffffffffffffffffffffffffffff16908173ffffffffffffffffffffffffffffffffffffffff168152505081816020019073ffffffffffffffffffffffffffffffffffffffff16908173ffffffffffffffffffffffffffffffffffffffff16815250506000803373ffffffffffffffffffffffffffffffffffffffff1673ffffffffffffffffffffffffffffffffffffffff16815260200190815260200160002081908060018154018082558091505060019003906000526020600020906002020160009091909190915060008201518160000160006101000a81548173ffffffffffffffffffffffffffffffffffffffff021916908373ffffffffffffffffffffffffffffffffffffffff16021790555060208201518160010160006101000a81548173ffffffffffffffffffffffffffffffffffffffff021916908373ffffffffffffffffffffffffffffffffffffffff1602179055505050600181908060018154018082558091505060019003906000526020600020906002020160009091909190915060008201518160000160006101000a81548173ffffffffffffffffffffffffffffffffffffffff021916908373ffffffffffffffffffffffffffffffffffffffff16021790555060208201518160010160006101000a81548173ffffffffffffffffffffffffffffffffffffffff021916908373ffffffffffffffffffffffffffffffffffffffff1602179055505050505090565b611fb880611aa383390190565b6040518060400160405280600073ffffffffffffffffffffffffffffffffffffffff168152602001600073ffffffffffffffffffffffffffffffffffffffff1681525090565b6000604051905090565b600080fd5b600080fd5b600073ffffffffffffffffffffffffffffffffffffffff82169050919050565b6000610b6582610b3a565b9050919050565b610b7581610b5a565b8114610b8057600080fd5b50565b600081359050610b9281610b6c565b92915050565b600080fd5b600080fd5b6000601f19601f8301169050919050565b7f4e487b7100000000000000000000000000000000000000000000000000000000600052604160045260246000fd5b610beb82610ba2565b810181811067ffffffffffffffff82111715610c0a57610c09610bb3565b5b80604052505050565b6000610c1d610b26565b9050610c298282610be2565b919050565b600067ffffffffffffffff821115610c4957610c48610bb3565b5b610c5282610ba2565b9050602081019050919050565b82818337600083830152505050565b6000610c81610c7c84610c2e565b610c13565b905082815260208101848484011115610c9d57610c9c610b9d565b5b610ca8848285610c5f565b509392505050565b600082601f830112610cc557610cc4610b98565b5b8135610cd5848260208601610c6e565b91505092915050565b600061ffff82169050919050565b610cf581610cde565b8114610d0057600080fd5b50565b600081359050610d1281610cec565b92915050565b60008060008060808587031215610d3257610d31610b30565b5b6000610d4087828801610b83565b945050602085013567ffffffffffffffff811115610d6157610d60610b35565b5b610d6d87828801610cb0565b935050604085013567ffffffffffffffff811115610d8e57610d8d610b35565b5b610d9a87828801610cb0565b9250506060610dab87828801610d03565b91505092959194509250565b600060ff82169050919050565b610dcd81610db7565b8114610dd857600080fd5b50565b600081359050610dea81610dc4565b92915050565b600060208284031215610e0657610e05610b30565b5b6000610e1484828501610ddb565b91505092915050565b610e2681610b5a565b82525050565b6000604082019050610e416000830185610e1d565b610e4e6020830184610e1d565b9392505050565b60008060408385031215610e6c57610e6b610b30565b5b6000610e7a85828601610b83565b9250506020610e8b85828601610ddb565b9150509250929050565b600081519050919050565b600082825260208201905092915050565b60005b83811015610ecf578082015181840152602081019050610eb4565b60008484015250505050565b6000610ee682610e95565b610ef08185610ea0565b9350610f00818560208601610eb1565b610f0981610ba2565b840191505092915050565b610f1d81610cde565b82525050565b600081519050919050565b600082825260208201905092915050565b6000819050602082019050919050565b610f5881610b5a565b82525050565b6000610f6a8383610f4f565b60208301905092915050565b6000602082019050919050565b6000610f8e82610f23565b610f988185610f2e565b9350610fa383610f3f565b8060005b83811015610fd4578151610fbb8882610f5e565b9750610fc683610f76565b925050600181019050610fa7565b5085935050505092915050565b7f4e487b7100000000000000000000000000000000000000000000000000000000600052602160045260246000fd5b6004811061102157611020610fe1565b5b50565b600081905061103282611010565b919050565b600061104282611024565b9050919050565b61105281611037565b82525050565b600060c08201905081810360008301526110728189610edb565b905081810360208301526110868188610edb565b90506110956040830187610f14565b81810360608301526110a78186610f83565b90506110b66080830185610f14565b6110c360a0830184611049565b979650505050505050565b600081519050919050565b600082825260208201905092915050565b6000819050602082019050919050565b6040820160008201516111106000850182610f4f565b5060208201516111236020850182610f4f565b50505050565b600061113583836110fa565b60408301905092915050565b6000602082019050919050565b6000611159826110ce565b61116381856110d9565b935061116e836110ea565b8060005b8381101561119f5781516111868882611129565b975061119183611141565b925050600181019050611172565b5085935050505092915050565b600060208201905081810360008301526111c6818461114e565b905092915050565b6000602082840312156111e4576111e3610b30565b5b60006111f284828501610b83565b91505092915050565b600081519050919050565b600082825260208201905092915050565b6000819050602082019050919050565b600082825260208201905092915050565b600061124382610e95565b61124d8185611227565b935061125d818560208601610eb1565b61126681610ba2565b840191505092915050565b61127a81610cde565b82525050565b600082825260208201905092915050565b600061129c82610f23565b6112a68185611280565b93506112b183610f3f565b8060005b838110156112e25781516112c98882610f5e565b97506112d483610f76565b9250506001810190506112b5565b5085935050505092915050565b6112f881611037565b82525050565b600060c083016000830151848203600086015261131b8282611238565b915050602083015184820360208601526113358282611238565b915050604083015161134a6040860182611271565b50606083015184820360608601526113628282611291565b91505060808301516113776080860182611271565b5060a083015161138a60a08601826112ef565b508091505092915050565b60006113a183836112fe565b905092915050565b6000602082019050919050565b60006113c1826111fb565b6113cb8185611206565b9350836020820285016113dd85611217565b8060005b8581101561141957848403895281516113fa8582611395565b9450611405836113a9565b925060208a019950506001810190506113e1565b50829750879550505050505092915050565b6000602082019050818103600083015261144581846113b6565b905092915050565b6000819050919050565b6114608161144d565b82525050565b600060208201905061147b6000830184611457565b92915050565b60006020820190506114966000830184610e1d565b92915050565b600060608201905081810360008301526114b68186610edb565b905081810360208301526114ca8185610edb565b90506114d96040830184610f14565b949350505050565b7f4f7574206f6620626f756e640000000000000000000000000000000000000000600082015250565b6000611517600c83610ea0565b9150611522826114e1565b602082019050919050565b600060208201905081810360008301526115468161150a565b9050919050565b7f4e487b7100000000000000000000000000000000000000000000000000000000600052603260045260246000fd5b61158581610db7565b82525050565b60006020820190506115a0600083018461157c565b92915050565b60006115b96115b484610c2e565b610c13565b9050828152602081018484840111156115d5576115d4610b9d565b5b6115e0848285610eb1565b509392505050565b600082601f8301126115fd576115fc610b98565b5b815161160d8482602086016115a6565b91505092915050565b60008151905061162581610cec565b92915050565b600067ffffffffffffffff82111561164657611645610bb3565b5b602082029050602081019050919050565b600080fd5b60008151905061166b81610b6c565b92915050565b600061168461167f8461162b565b610c13565b905080838252602082019050602084028301858111156116a7576116a6611657565b5b835b818110156116d057806116bc888261165c565b8452602084019350506020810190506116a9565b5050509392505050565b600082601f8301126116ef576116ee610b98565b5b81516116ff848260208601611671565b91505092915050565b6004811061171557600080fd5b50565b60008151905061172781611708565b92915050565b60008060008060008060c0878903121561174a57611749610b30565b5b600087015167ffffffffffffffff81111561176857611767610b35565b5b61177489828a016115e8565b965050602087015167ffffffffffffffff81111561179557611794610b35565b5b6117a189828a016115e8565b95505060406117b289828a01611616565b945050606087015167ffffffffffffffff8111156117d3576117d2610b35565b5b6117df89828a016116da565b93505060806117f089828a01611616565b92505060a061180189828a01611718565b9150509295509295509295565b600067ffffffffffffffff82111561182957611828610bb3565b5b602082029050602081019050919050565b600080fd5b600080fd5b600060c0828403121561185a5761185961183a565b5b61186460c0610c13565b9050600082015167ffffffffffffffff8111156118845761188361183f565b5b611890848285016115e8565b600083015250602082015167ffffffffffffffff8111156118b4576118b361183f565b5b6118c0848285016115e8565b60208301525060406118d484828501611616565b604083015250606082015167ffffffffffffffff8111156118f8576118f761183f565b5b611904848285016116da565b606083015250608061191884828501611616565b60808301525060a061192c84828501611718565b60a08301525092915050565b600061194b6119468461180e565b610c13565b9050808382526020820190506020840283018581111561196e5761196d611657565b5b835b818110156119b557805167ffffffffffffffff81111561199357611992610b98565b5b8086016119a08982611844565b85526020850194505050602081019050611970565b5050509392505050565b600082601f8301126119d4576119d3610b98565b5b81516119e4848260208601611938565b91505092915050565b600060208284031215611a0357611a02610b30565b5b600082015167ffffffffffffffff811115611a2157611a20610b35565b5b611a2d848285016119bf565b91505092915050565b7f5a65726f206e6f7420616c6c6f77656400000000000000000000000000000000600082015250565b6000611a6c601083610ea0565b9150611a7782611a36565b602082019050919050565b60006020820190508181036000830152611a9b81611a5f565b905091905056fe6080604052348015600f57600080fd5b50611f998061001f6000396000f3fe608060405234801561001057600080fd5b50600436106100575760003560e01c8063013cf08b1461005c5780635521e3bf1461009057806367d7a419146100ac578063bcf2e026146100e1578063cceb68f5146100fd575b600080fd5b61007660048036038101906100719190611033565b61011b565b604051610087959493929190611184565b60405180910390f35b6100aa60048036038101906100a5919061121e565b61029a565b005b6100c660048036038101906100c1919061121e565b610700565b6040516100d89695949392919061133b565b60405180910390f35b6100fb60048036038101906100f69190611512565b610a58565b005b610105610c66565b60405161011291906117cd565b60405180910390f35b6001818154811061012b57600080fd5b906000526020600020906005020160009150905080600001805461014e9061181e565b80601f016020809104026020016040519081016040528092919081815260200182805461017a9061181e565b80156101c75780601f1061019c576101008083540402835291602001916101c7565b820191906000526020600020905b8154815290600101906020018083116101aa57829003601f168201915b5050505050908060010180546101dc9061181e565b80601f01602080910402602001604051908101604052809291908181526020018280546102089061181e565b80156102555780601f1061022a57610100808354040283529160200191610255565b820191906000526020600020905b81548152906001019060200180831161023857829003601f168201915b5050505050908060020160009054906101000a900461ffff16908060040160009054906101000a900461ffff16908060040160029054906101000a900460ff16905085565b600073ffffffffffffffffffffffffffffffffffffffff163373ffffffffffffffffffffffffffffffffffffffff1603610309576040517f08c379a00000000000000000000000000000000000000000000000000000000081526004016103009061189b565b60405180910390fd5b6001805490508160ff1610610353576040517f08c379a000000000000000000000000000000000000000000000000000000000815260040161034a90611907565b60405180910390fd5b6000803373ffffffffffffffffffffffffffffffffffffffff1673ffffffffffffffffffffffffffffffffffffffff16815260200190815260200160002060008260ff1660ff16815260200190815260200160002060009054906101000a900460ff16156103f6576040517f08c379a00000000000000000000000000000000000000000000000000000000081526004016103ed90611973565b60405180910390fd5b600060018260ff168154811061040f5761040e611993565b5b906000526020600020906005020190506003808111156104325761043161110d565b5b8160040160029054906101000a900460ff1660038111156104565761045561110d565b5b03610496576040517f08c379a000000000000000000000000000000000000000000000000000000000815260040161048d90611a34565b60405180910390fd5b60018160020160008282829054906101000a900461ffff166104b89190611a83565b92506101000a81548161ffff021916908361ffff16021790555080600301339080600181540180825580915050600190039060005260206000200160009091909190916101000a81548173ffffffffffffffffffffffffffffffffffffffff021916908373ffffffffffffffffffffffffffffffffffffffff16021790555060028160040160026101000a81548160ff0219169083600381111561055f5761055e61110d565b5b021790555060016000803373ffffffffffffffffffffffffffffffffffffffff1673ffffffffffffffffffffffffffffffffffffffff16815260200190815260200160002060008460ff1660ff16815260200190815260200160002060006101000a81548160ff0219169083151502179055508060040160009054906101000a900461ffff1661ffff168160020160009054906101000a900461ffff1661ffff16106106995760038160040160026101000a81548160ff0219169083600381111561062d5761062c61110d565b5b0217905550806000016040516106439190611b5c565b60405180910390207f57ee8a914ff41f9df2d7f3b88352952ab8f702bc31ab97fa3240d82460a9f3548260020160009054906101000a900461ffff1660405161068c9190611bae565b60405180910390a26106fc565b806000016040516106aa9190611b5c565b60405180910390207f21b4246139e955ef22ce210d80dafa91cc534302377e7dd1e96aae64694a4a9f8260020160009054906101000a900461ffff166040516106f39190611bae565b60405180910390a25b5050565b60608060006060600080600073ffffffffffffffffffffffffffffffffffffffff163373ffffffffffffffffffffffffffffffffffffffff1603610779576040517f08c379a00000000000000000000000000000000000000000000000000000000081526004016107709061189b565b60405180910390fd5b6001805490508760ff16106107c3576040517f08c379a00000000000000000000000000000000000000000000000000000000081526004016107ba90611c15565b60405180910390fd5b600060018860ff16815481106107dc576107db611993565b5b90600052602060002090600502016040518060c00160405290816000820180546108059061181e565b80601f01602080910402602001604051908101604052809291908181526020018280546108319061181e565b801561087e5780601f106108535761010080835404028352916020019161087e565b820191906000526020600020905b81548152906001019060200180831161086157829003601f168201915b505050505081526020016001820180546108979061181e565b80601f01602080910402602001604051908101604052809291908181526020018280546108c39061181e565b80156109105780601f106108e557610100808354040283529160200191610910565b820191906000526020600020905b8154815290600101906020018083116108f357829003601f168201915b505050505081526020016002820160009054906101000a900461ffff1661ffff1661ffff168152602001600382018054806020026020016040519081016040528092919081815260200182805480156109be57602002820191906000526020600020905b8160009054906101000a900473ffffffffffffffffffffffffffffffffffffffff1673ffffffffffffffffffffffffffffffffffffffff1681526020019060010190808311610974575b505050505081526020016004820160009054906101000a900461ffff1661ffff1661ffff1681526020016004820160029054906101000a900460ff166003811115610a0c57610a0b61110d565b5b6003811115610a1e57610a1d61110d565b5b81525050905080600001519650806020015195508060400151945080606001519350806080015192508060a0015191505091939550919395565b600073ffffffffffffffffffffffffffffffffffffffff163373ffffffffffffffffffffffffffffffffffffffff1603610ac7576040517f08c379a0000000000000000000000000000000000000000000000000000000008152600401610abe90611c81565b60405180910390fd5b610acf610ef2565b83816000018190525082816020018190525081816080019061ffff16908161ffff168152505060018160a001906003811115610b0e57610b0d61110d565b5b90816003811115610b2257610b2161110d565b5b8152505060018190806001815401808255809150506001900390600052602060002090600502016000909190919091506000820151816000019081610b679190611e2e565b506020820151816001019081610b7d9190611e2e565b5060408201518160020160006101000a81548161ffff021916908361ffff1602179055506060820151816003019080519060200190610bbd929190610f42565b5060808201518160040160006101000a81548161ffff021916908361ffff16021790555060a08201518160040160026101000a81548160ff02191690836003811115610c0c57610c0b61110d565b5b0217905550505083604051610c219190611f31565b60405180910390207fd676bd5a867d12796d6ef62a604d07c83bdce30aaf9471431d7772e1ba09e22283604051610c589190611f48565b60405180910390a250505050565b60606001805480602002602001604051908101604052809291908181526020016000905b82821015610ee957838290600052602060002090600502016040518060c0016040529081600082018054610cbd9061181e565b80601f0160208091040260200160405190810160405280929190818152602001828054610ce99061181e565b8015610d365780601f10610d0b57610100808354040283529160200191610d36565b820191906000526020600020905b815481529060010190602001808311610d1957829003601f168201915b50505050508152602001600182018054610d4f9061181e565b80601f0160208091040260200160405190810160405280929190818152602001828054610d7b9061181e565b8015610dc85780601f10610d9d57610100808354040283529160200191610dc8565b820191906000526020600020905b815481529060010190602001808311610dab57829003601f168201915b505050505081526020016002820160009054906101000a900461ffff1661ffff1661ffff16815260200160038201805480602002602001604051908101604052809291908181526020018280548015610e7657602002820191906000526020600020905b8160009054906101000a900473ffffffffffffffffffffffffffffffffffffffff1673ffffffffffffffffffffffffffffffffffffffff1681526020019060010190808311610e2c575b505050505081526020016004820160009054906101000a900461ffff1661ffff1661ffff1681526020016004820160029054906101000a900460ff166003811115610ec457610ec361110d565b5b6003811115610ed657610ed561110d565b5b8152505081526020019060010190610c8a565b50505050905090565b6040518060c001604052806060815260200160608152602001600061ffff16815260200160608152602001600061ffff16815260200160006003811115610f3c57610f3b61110d565b5b81525090565b828054828255906000526020600020908101928215610fbb579160200282015b82811115610fba5782518260006101000a81548173ffffffffffffffffffffffffffffffffffffffff021916908373ffffffffffffffffffffffffffffffffffffffff16021790555091602001919060010190610f62565b5b509050610fc89190610fcc565b5090565b5b80821115610fe5576000816000905550600101610fcd565b5090565b6000604051905090565b600080fd5b600080fd5b6000819050919050565b61101081610ffd565b811461101b57600080fd5b50565b60008135905061102d81611007565b92915050565b60006020828403121561104957611048610ff3565b5b60006110578482850161101e565b91505092915050565b600081519050919050565b600082825260208201905092915050565b60005b8381101561109a57808201518184015260208101905061107f565b60008484015250505050565b6000601f19601f8301169050919050565b60006110c282611060565b6110cc818561106b565b93506110dc81856020860161107c565b6110e5816110a6565b840191505092915050565b600061ffff82169050919050565b611107816110f0565b82525050565b7f4e487b7100000000000000000000000000000000000000000000000000000000600052602160045260246000fd5b6004811061114d5761114c61110d565b5b50565b600081905061115e8261113c565b919050565b600061116e82611150565b9050919050565b61117e81611163565b82525050565b600060a082019050818103600083015261119e81886110b7565b905081810360208301526111b281876110b7565b90506111c160408301866110fe565b6111ce60608301856110fe565b6111db6080830184611175565b9695505050505050565b600060ff82169050919050565b6111fb816111e5565b811461120657600080fd5b50565b600081359050611218816111f2565b92915050565b60006020828403121561123457611233610ff3565b5b600061124284828501611209565b91505092915050565b600081519050919050565b600082825260208201905092915050565b6000819050602082019050919050565b600073ffffffffffffffffffffffffffffffffffffffff82169050919050565b60006112a282611277565b9050919050565b6112b281611297565b82525050565b60006112c483836112a9565b60208301905092915050565b6000602082019050919050565b60006112e88261124b565b6112f28185611256565b93506112fd83611267565b8060005b8381101561132e57815161131588826112b8565b9750611320836112d0565b925050600181019050611301565b5085935050505092915050565b600060c082019050818103600083015261135581896110b7565b9050818103602083015261136981886110b7565b905061137860408301876110fe565b818103606083015261138a81866112dd565b905061139960808301856110fe565b6113a660a0830184611175565b979650505050505050565b600080fd5b600080fd5b7f4e487b7100000000000000000000000000000000000000000000000000000000600052604160045260246000fd5b6113f3826110a6565b810181811067ffffffffffffffff82111715611412576114116113bb565b5b80604052505050565b6000611425610fe9565b905061143182826113ea565b919050565b600067ffffffffffffffff821115611451576114506113bb565b5b61145a826110a6565b9050602081019050919050565b82818337600083830152505050565b600061148961148484611436565b61141b565b9050828152602081018484840111156114a5576114a46113b6565b5b6114b0848285611467565b509392505050565b600082601f8301126114cd576114cc6113b1565b5b81356114dd848260208601611476565b91505092915050565b6114ef816110f0565b81146114fa57600080fd5b50565b60008135905061150c816114e6565b92915050565b60008060006060848603121561152b5761152a610ff3565b5b600084013567ffffffffffffffff81111561154957611548610ff8565b5b611555868287016114b8565b935050602084013567ffffffffffffffff81111561157657611575610ff8565b5b611582868287016114b8565b9250506040611593868287016114fd565b9150509250925092565b600081519050919050565b600082825260208201905092915050565b6000819050602082019050919050565b600082825260208201905092915050565b60006115e582611060565b6115ef81856115c9565b93506115ff81856020860161107c565b611608816110a6565b840191505092915050565b61161c816110f0565b82525050565b600082825260208201905092915050565b600061163e8261124b565b6116488185611622565b935061165383611267565b8060005b8381101561168457815161166b88826112b8565b9750611676836112d0565b925050600181019050611657565b5085935050505092915050565b61169a81611163565b82525050565b600060c08301600083015184820360008601526116bd82826115da565b915050602083015184820360208601526116d782826115da565b91505060408301516116ec6040860182611613565b50606083015184820360608601526117048282611633565b91505060808301516117196080860182611613565b5060a083015161172c60a0860182611691565b508091505092915050565b600061174383836116a0565b905092915050565b6000602082019050919050565b60006117638261159d565b61176d81856115a8565b93508360208202850161177f856115b9565b8060005b858110156117bb578484038952815161179c8582611737565b94506117a78361174b565b925060208a01995050600181019050611783565b50829750879550505050505092915050565b600060208201905081810360008301526117e78184611758565b905092915050565b7f4e487b7100000000000000000000000000000000000000000000000000000000600052602260045260246000fd5b6000600282049050600182168061183657607f821691505b602082108103611849576118486117ef565b5b50919050565b7f5a65726f206e6f7420616c6c6f77656400000000000000000000000000000000600082015250565b600061188560108361106b565b91506118908261184f565b602082019050919050565b600060208201905081810360008301526118b481611878565b9050919050565b7f696e646578206973206f75742d6f662d626f756e640000000000000000000000600082015250565b60006118f160158361106b565b91506118fc826118bb565b602082019050919050565b60006020820190508181036000830152611920816118e4565b9050919050565b7f596f7527766520766f74656420616c7265616479000000000000000000000000600082015250565b600061195d60148361106b565b915061196882611927565b602082019050919050565b6000602082019050818103600083015261198c81611950565b9050919050565b7f4e487b7100000000000000000000000000000000000000000000000000000000600052603260045260246000fd5b7f546869732070726f706f73616c20686173206265656e2061636365707465642060008201527f616c726561647900000000000000000000000000000000000000000000000000602082015250565b6000611a1e60278361106b565b9150611a29826119c2565b604082019050919050565b60006020820190508181036000830152611a4d81611a11565b9050919050565b7f4e487b7100000000000000000000000000000000000000000000000000000000600052601160045260246000fd5b6000611a8e826110f0565b9150611a99836110f0565b9250828201905061ffff811115611ab357611ab2611a54565b5b92915050565b600081905092915050565b60008190508160005260206000209050919050565b60008154611ae68161181e565b611af08186611ab9565b94506001821660008114611b0b5760018114611b2057611b53565b60ff1983168652811515820286019350611b53565b611b2985611ac4565b60005b83811015611b4b57815481890152600182019150602081019050611b2c565b838801955050505b50505092915050565b6000611b688284611ad9565b915081905092915050565b6000819050919050565b6000611b98611b93611b8e846110f0565b611b73565b610ffd565b9050919050565b611ba881611b7d565b82525050565b6000602082019050611bc36000830184611b9f565b92915050565b7f496e646578206973206f75742d6f662d626f756e640000000000000000000000600082015250565b6000611bff60158361106b565b9150611c0a82611bc9565b602082019050919050565b60006020820190508181036000830152611c2e81611bf2565b9050919050565b7f5a65726f2061646472657373206e6f7420616c6c6f7765640000000000000000600082015250565b6000611c6b60188361106b565b9150611c7682611c35565b602082019050919050565b60006020820190508181036000830152611c9a81611c5e565b9050919050565b60006020601f8301049050919050565b600082821b905092915050565b600060088302611cee7fffffffffffffffffffffffffffffffffffffffffffffffffffffffffffffffff82611cb1565b611cf88683611cb1565b95508019841693508086168417925050509392505050565b6000611d2b611d26611d2184610ffd565b611b73565b610ffd565b9050919050565b6000819050919050565b611d4583611d10565b611d59611d5182611d32565b848454611cbe565b825550505050565b600090565b611d6e611d61565b611d79818484611d3c565b505050565b5b81811015611d9d57611d92600082611d66565b600181019050611d7f565b5050565b601f821115611de257611db381611ac4565b611dbc84611ca1565b81016020851015611dcb578190505b611ddf611dd785611ca1565b830182611d7e565b50505b505050565b600082821c905092915050565b6000611e0560001984600802611de7565b1980831691505092915050565b6000611e1e8383611df4565b9150826002028217905092915050565b611e3782611060565b67ffffffffffffffff811115611e5057611e4f6113bb565b5b611e5a825461181e565b611e65828285611da1565b600060209050601f831160018114611e985760008415611e86578287015190505b611e908582611e12565b865550611ef8565b601f198416611ea686611ac4565b60005b82811015611ece57848901518255600182019150602085019450602081019050611ea9565b86831015611eeb5784890151611ee7601f891682611df4565b8355505b6001600288020188555050505b505050505050565b6000611f0b82611060565b611f158185611ab9565b9350611f2581856020860161107c565b80840191505092915050565b6000611f3d8284611f00565b915081905092915050565b6000602082019050611f5d60008301846110fe565b9291505056fea26469706673582212202a3aaa482dc22d32b92855af45f21a404903f623154872658df01bf66af123e664736f6c634300081b0033a26469706673582212208b50581f835e2518e912dc7ae2c99fa11d9a9d042c219d093baca542b331a1b664736f6c634300081b0033",
          "opcodes": "PUSH1 0x80 PUSH1 0x40 MSTORE CALLVALUE DUP1 ISZERO PUSH1 0xF JUMPI PUSH1 0x0 DUP1 REVERT JUMPDEST POP PUSH2 0x3A90 DUP1 PUSH2 0x1F PUSH1 0x0 CODECOPY PUSH1 0x0 RETURN INVALID PUSH1 0x80 PUSH1 0x40 MSTORE CALLVALUE DUP1 ISZERO PUSH2 0x10 JUMPI PUSH1 0x0 DUP1 REVERT JUMPDEST POP PUSH1 0x4 CALLDATASIZE LT PUSH2 0x93 JUMPI PUSH1 0x0 CALLDATALOAD PUSH1 0xE0 SHR DUP1 PUSH4 0x9853D922 GT PUSH2 0x66 JUMPI DUP1 PUSH4 0x9853D922 EQ PUSH2 0x138 JUMPI DUP1 PUSH4 0xBA3CCF09 EQ PUSH2 0x168 JUMPI DUP1 PUSH4 0xBDB383EC EQ PUSH2 0x186 JUMPI DUP1 PUSH4 0xC707F0CC EQ PUSH2 0x1A4 JUMPI DUP1 PUSH4 0xCA5C9C58 EQ PUSH2 0x1C0 JUMPI PUSH2 0x93 JUMP JUMPDEST DUP1 PUSH4 0x2D4747A8 EQ PUSH2 0x98 JUMPI DUP1 PUSH4 0x5AEFDC3B EQ PUSH2 0xB4 JUMPI DUP1 PUSH4 0x7DCD0037 EQ PUSH2 0xE5 JUMPI DUP1 PUSH4 0x8FF2DD86 EQ PUSH2 0x11A JUMPI JUMPDEST PUSH1 0x0 DUP1 REVERT JUMPDEST PUSH2 0xB2 PUSH1 0x4 DUP1 CALLDATASIZE SUB DUP2 ADD SWAP1 PUSH2 0xAD SWAP2 SWAP1 PUSH2 0xD18 JUMP JUMPDEST PUSH2 0x1DE JUMP JUMPDEST STOP JUMPDEST PUSH2 0xCE PUSH1 0x4 DUP1 CALLDATASIZE SUB DUP2 ADD SWAP1 PUSH2 0xC9 SWAP2 SWAP1 PUSH2 0xDF0 JUMP JUMPDEST PUSH2 0x253 JUMP JUMPDEST PUSH1 0x40 MLOAD PUSH2 0xDC SWAP3 SWAP2 SWAP1 PUSH2 0xE2C JUMP JUMPDEST PUSH1 0x40 MLOAD DUP1 SWAP2 SUB SWAP1 RETURN JUMPDEST PUSH2 0xFF PUSH1 0x4 DUP1 CALLDATASIZE SUB DUP2 ADD SWAP1 PUSH2 0xFA SWAP2 SWAP1 PUSH2 0xE55 JUMP JUMPDEST PUSH2 0x40C JUMP JUMPDEST PUSH1 0x40 MLOAD PUSH2 0x111 SWAP7 SWAP6 SWAP5 SWAP4 SWAP3 SWAP2 SWAP1 PUSH2 0x1058 JUMP JUMPDEST PUSH1 0x40 MLOAD DUP1 SWAP2 SUB SWAP1 RETURN JUMPDEST PUSH2 0x122 PUSH2 0x4B7 JUMP JUMPDEST PUSH1 0x40 MLOAD PUSH2 0x12F SWAP2 SWAP1 PUSH2 0x11AC JUMP JUMPDEST PUSH1 0x40 MLOAD DUP1 SWAP2 SUB SWAP1 RETURN JUMPDEST PUSH2 0x152 PUSH1 0x4 DUP1 CALLDATASIZE SUB DUP2 ADD SWAP1 PUSH2 0x14D SWAP2 SWAP1 PUSH2 0x11CE JUMP JUMPDEST PUSH2 0x5FE JUMP JUMPDEST PUSH1 0x40 MLOAD PUSH2 0x15F SWAP2 SWAP1 PUSH2 0x142B JUMP JUMPDEST PUSH1 0x40 MLOAD DUP1 SWAP2 SUB SWAP1 RETURN JUMPDEST PUSH2 0x170 PUSH2 0x67B JUMP JUMPDEST PUSH1 0x40 MLOAD PUSH2 0x17D SWAP2 SWAP1 PUSH2 0x1466 JUMP JUMPDEST PUSH1 0x40 MLOAD DUP1 SWAP2 SUB SWAP1 RETURN JUMPDEST PUSH2 0x18E PUSH2 0x688 JUMP JUMPDEST PUSH1 0x40 MLOAD PUSH2 0x19B SWAP2 SWAP1 PUSH2 0x11AC JUMP JUMPDEST PUSH1 0x40 MLOAD DUP1 SWAP2 SUB SWAP1 RETURN JUMPDEST PUSH2 0x1BE PUSH1 0x4 DUP1 CALLDATASIZE SUB DUP2 ADD SWAP1 PUSH2 0x1B9 SWAP2 SWAP1 PUSH2 0xE55 JUMP JUMPDEST PUSH2 0x793 JUMP JUMPDEST STOP JUMPDEST PUSH2 0x1C8 PUSH2 0x802 JUMP JUMPDEST PUSH1 0x40 MLOAD PUSH2 0x1D5 SWAP2 SWAP1 PUSH2 0x1481 JUMP JUMPDEST PUSH1 0x40 MLOAD DUP1 SWAP2 SUB SWAP1 RETURN JUMPDEST DUP4 PUSH20 0xFFFFFFFFFFFFFFFFFFFFFFFFFFFFFFFFFFFFFFFF AND PUSH4 0xBCF2E026 DUP5 DUP5 DUP5 PUSH1 0x40 MLOAD DUP5 PUSH4 0xFFFFFFFF AND PUSH1 0xE0 SHL DUP2 MSTORE PUSH1 0x4 ADD PUSH2 0x21B SWAP4 SWAP3 SWAP2 SWAP1 PUSH2 0x149C JUMP JUMPDEST PUSH1 0x0 PUSH1 0x40 MLOAD DUP1 DUP4 SUB DUP2 PUSH1 0x0 DUP8 DUP1 EXTCODESIZE ISZERO DUP1 ISZERO PUSH2 0x235 JUMPI PUSH1 0x0 DUP1 REVERT JUMPDEST POP GAS CALL ISZERO DUP1 ISZERO PUSH2 0x249 JUMPI RETURNDATASIZE PUSH1 0x0 DUP1 RETURNDATACOPY RETURNDATASIZE PUSH1 0x0 REVERT JUMPDEST POP POP POP POP POP POP POP POP JUMP JUMPDEST PUSH1 0x0 DUP1 PUSH1 0x0 DUP1 CALLER PUSH20 0xFFFFFFFFFFFFFFFFFFFFFFFFFFFFFFFFFFFFFFFF AND PUSH20 0xFFFFFFFFFFFFFFFFFFFFFFFFFFFFFFFFFFFFFFFF AND DUP2 MSTORE PUSH1 0x20 ADD SWAP1 DUP2 MSTORE PUSH1 0x20 ADD PUSH1 0x0 KECCAK256 DUP1 SLOAD SWAP1 POP DUP4 PUSH1 0xFF AND LT PUSH2 0x2DC JUMPI PUSH1 0x40 MLOAD PUSH32 0x8C379A000000000000000000000000000000000000000000000000000000000 DUP2 MSTORE PUSH1 0x4 ADD PUSH2 0x2D3 SWAP1 PUSH2 0x152D JUMP JUMPDEST PUSH1 0x40 MLOAD DUP1 SWAP2 SUB SWAP1 REVERT JUMPDEST PUSH1 0x0 DUP1 PUSH1 0x0 CALLER PUSH20 0xFFFFFFFFFFFFFFFFFFFFFFFFFFFFFFFFFFFFFFFF AND PUSH20 0xFFFFFFFFFFFFFFFFFFFFFFFFFFFFFFFFFFFFFFFF AND DUP2 MSTORE PUSH1 0x20 ADD SWAP1 DUP2 MSTORE PUSH1 0x20 ADD PUSH1 0x0 KECCAK256 DUP5 PUSH1 0xFF AND DUP2 SLOAD DUP2 LT PUSH2 0x331 JUMPI PUSH2 0x330 PUSH2 0x154D JUMP JUMPDEST JUMPDEST SWAP1 PUSH1 0x0 MSTORE PUSH1 0x20 PUSH1 0x0 KECCAK256 SWAP1 PUSH1 0x2 MUL ADD PUSH1 0x40 MLOAD DUP1 PUSH1 0x40 ADD PUSH1 0x40 MSTORE SWAP1 DUP2 PUSH1 0x0 DUP3 ADD PUSH1 0x0 SWAP1 SLOAD SWAP1 PUSH2 0x100 EXP SWAP1 DIV PUSH20 0xFFFFFFFFFFFFFFFFFFFFFFFFFFFFFFFFFFFFFFFF AND PUSH20 0xFFFFFFFFFFFFFFFFFFFFFFFFFFFFFFFFFFFFFFFF AND PUSH20 0xFFFFFFFFFFFFFFFFFFFFFFFFFFFFFFFFFFFFFFFF AND DUP2 MSTORE PUSH1 0x20 ADD PUSH1 0x1 DUP3 ADD PUSH1 0x0 SWAP1 SLOAD SWAP1 PUSH2 0x100 EXP SWAP1 DIV PUSH20 0xFFFFFFFFFFFFFFFFFFFFFFFFFFFFFFFFFFFFFFFF AND PUSH20 0xFFFFFFFFFFFFFFFFFFFFFFFFFFFFFFFFFFFFFFFF AND PUSH20 0xFFFFFFFFFFFFFFFFFFFFFFFFFFFFFFFFFFFFFFFF AND DUP2 MSTORE POP POP SWAP1 POP DUP1 PUSH1 0x0 ADD MLOAD SWAP3 POP DUP1 PUSH1 0x20 ADD MLOAD SWAP2 POP POP SWAP2 POP SWAP2 JUMP JUMPDEST PUSH1 0x60 DUP1 PUSH1 0x0 PUSH1 0x60 PUSH1 0x0 DUP1 DUP8 PUSH20 0xFFFFFFFFFFFFFFFFFFFFFFFFFFFFFFFFFFFFFFFF AND PUSH4 0x67D7A419 DUP9 PUSH1 0x40 MLOAD DUP3 PUSH4 0xFFFFFFFF AND PUSH1 0xE0 SHL DUP2 MSTORE PUSH1 0x4 ADD PUSH2 0x44F SWAP2 SWAP1 PUSH2 0x158B JUMP JUMPDEST PUSH1 0x0 PUSH1 0x40 MLOAD DUP1 DUP4 SUB DUP2 DUP7 GAS STATICCALL ISZERO DUP1 ISZERO PUSH2 0x46C JUMPI RETURNDATASIZE PUSH1 0x0 DUP1 RETURNDATACOPY RETURNDATASIZE PUSH1 0x0 REVERT JUMPDEST POP POP POP POP PUSH1 0x40 MLOAD RETURNDATASIZE PUSH1 0x0 DUP3 RETURNDATACOPY RETURNDATASIZE PUSH1 0x1F NOT PUSH1 0x1F DUP3 ADD AND DUP3 ADD DUP1 PUSH1 0x40 MSTORE POP DUP2 ADD SWAP1 PUSH2 0x495 SWAP2 SWAP1 PUSH2 0x172D JUMP JUMPDEST DUP1 SWAP7 POP DUP2 SWAP8 POP DUP3 SWAP9 POP DUP4 SWAP10 POP DUP5 SWAP11 POP DUP6 SWAP12 POP POP POP POP POP POP POP SWAP3 SWAP6 POP SWAP3 SWAP6 POP SWAP3 SWAP6 JUMP JUMPDEST PUSH1 0x60 PUSH1 0x0 DUP1 CALLER PUSH20 0xFFFFFFFFFFFFFFFFFFFFFFFFFFFFFFFFFFFFFFFF AND PUSH20 0xFFFFFFFFFFFFFFFFFFFFFFFFFFFFFFFFFFFFFFFF AND DUP2 MSTORE PUSH1 0x20 ADD SWAP1 DUP2 MSTORE PUSH1 0x20 ADD PUSH1 0x0 KECCAK256 DUP1 SLOAD DUP1 PUSH1 0x20 MUL PUSH1 0x20 ADD PUSH1 0x40 MLOAD SWAP1 DUP2 ADD PUSH1 0x40 MSTORE DUP1 SWAP3 SWAP2 SWAP1 DUP2 DUP2 MSTORE PUSH1 0x20 ADD PUSH1 0x0 SWAP1 JUMPDEST DUP3 DUP3 LT ISZERO PUSH2 0x5F5 JUMPI DUP4 DUP3 SWAP1 PUSH1 0x0 MSTORE PUSH1 0x20 PUSH1 0x0 KECCAK256 SWAP1 PUSH1 0x2 MUL ADD PUSH1 0x40 MLOAD DUP1 PUSH1 0x40 ADD PUSH1 0x40 MSTORE SWAP1 DUP2 PUSH1 0x0 DUP3 ADD PUSH1 0x0 SWAP1 SLOAD SWAP1 PUSH2 0x100 EXP SWAP1 DIV PUSH20 0xFFFFFFFFFFFFFFFFFFFFFFFFFFFFFFFFFFFFFFFF AND PUSH20 0xFFFFFFFFFFFFFFFFFFFFFFFFFFFFFFFFFFFFFFFF AND PUSH20 0xFFFFFFFFFFFFFFFFFFFFFFFFFFFFFFFFFFFFFFFF AND DUP2 MSTORE PUSH1 0x20 ADD PUSH1 0x1 DUP3 ADD PUSH1 0x0 SWAP1 SLOAD SWAP1 PUSH2 0x100 EXP SWAP1 DIV PUSH20 0xFFFFFFFFFFFFFFFFFFFFFFFFFFFFFFFFFFFFFFFF AND PUSH20 0xFFFFFFFFFFFFFFFFFFFFFFFFFFFFFFFFFFFFFFFF AND PUSH20 0xFFFFFFFFFFFFFFFFFFFFFFFFFFFFFFFFFFFFFFFF AND DUP2 MSTORE POP POP DUP2 MSTORE PUSH1 0x20 ADD SWAP1 PUSH1 0x1 ADD SWAP1 PUSH2 0x517 JUMP JUMPDEST POP POP POP POP SWAP1 POP SWAP1 JUMP JUMPDEST PUSH1 0x60 DUP2 PUSH20 0xFFFFFFFFFFFFFFFFFFFFFFFFFFFFFFFFFFFFFFFF AND PUSH4 0xCCEB68F5 PUSH1 0x40 MLOAD DUP2 PUSH4 0xFFFFFFFF AND PUSH1 0xE0 SHL DUP2 MSTORE PUSH1 0x4 ADD PUSH1 0x0 PUSH1 0x40 MLOAD DUP1 DUP4 SUB DUP2 DUP7 GAS STATICCALL ISZERO DUP1 ISZERO PUSH2 0x64B JUMPI RETURNDATASIZE PUSH1 0x0 DUP1 RETURNDATACOPY RETURNDATASIZE PUSH1 0x0 REVERT JUMPDEST POP POP POP POP PUSH1 0x40 MLOAD RETURNDATASIZE PUSH1 0x0 DUP3 RETURNDATACOPY RETURNDATASIZE PUSH1 0x1F NOT PUSH1 0x1F DUP3 ADD AND DUP3 ADD DUP1 PUSH1 0x40 MSTORE POP DUP2 ADD SWAP1 PUSH2 0x674 SWAP2 SWAP1 PUSH2 0x19ED JUMP JUMPDEST SWAP1 POP SWAP2 SWAP1 POP JUMP JUMPDEST PUSH1 0x0 PUSH1 0x1 DUP1 SLOAD SWAP1 POP SWAP1 POP SWAP1 JUMP JUMPDEST PUSH1 0x60 PUSH1 0x1 DUP1 SLOAD DUP1 PUSH1 0x20 MUL PUSH1 0x20 ADD PUSH1 0x40 MLOAD SWAP1 DUP2 ADD PUSH1 0x40 MSTORE DUP1 SWAP3 SWAP2 SWAP1 DUP2 DUP2 MSTORE PUSH1 0x20 ADD PUSH1 0x0 SWAP1 JUMPDEST DUP3 DUP3 LT ISZERO PUSH2 0x78A JUMPI DUP4 DUP3 SWAP1 PUSH1 0x0 MSTORE PUSH1 0x20 PUSH1 0x0 KECCAK256 SWAP1 PUSH1 0x2 MUL ADD PUSH1 0x40 MLOAD DUP1 PUSH1 0x40 ADD PUSH1 0x40 MSTORE SWAP1 DUP2 PUSH1 0x0 DUP3 ADD PUSH1 0x0 SWAP1 SLOAD SWAP1 PUSH2 0x100 EXP SWAP1 DIV PUSH20 0xFFFFFFFFFFFFFFFFFFFFFFFFFFFFFFFFFFFFFFFF AND PUSH20 0xFFFFFFFFFFFFFFFFFFFFFFFFFFFFFFFFFFFFFFFF AND PUSH20 0xFFFFFFFFFFFFFFFFFFFFFFFFFFFFFFFFFFFFFFFF AND DUP2 MSTORE PUSH1 0x20 ADD PUSH1 0x1 DUP3 ADD PUSH1 0x0 SWAP1 SLOAD SWAP1 PUSH2 0x100 EXP SWAP1 DIV PUSH20 0xFFFFFFFFFFFFFFFFFFFFFFFFFFFFFFFFFFFFFFFF AND PUSH20 0xFFFFFFFFFFFFFFFFFFFFFFFFFFFFFFFFFFFFFFFF AND PUSH20 0xFFFFFFFFFFFFFFFFFFFFFFFFFFFFFFFFFFFFFFFF AND DUP2 MSTORE POP POP DUP2 MSTORE PUSH1 0x20 ADD SWAP1 PUSH1 0x1 ADD SWAP1 PUSH2 0x6AC JUMP JUMPDEST POP POP POP POP SWAP1 POP SWAP1 JUMP JUMPDEST DUP2 PUSH20 0xFFFFFFFFFFFFFFFFFFFFFFFFFFFFFFFFFFFFFFFF AND PUSH4 0x5521E3BF DUP3 PUSH1 0x40 MLOAD DUP3 PUSH4 0xFFFFFFFF AND PUSH1 0xE0 SHL DUP2 MSTORE PUSH1 0x4 ADD PUSH2 0x7CC SWAP2 SWAP1 PUSH2 0x158B JUMP JUMPDEST PUSH1 0x0 PUSH1 0x40 MLOAD DUP1 DUP4 SUB DUP2 PUSH1 0x0 DUP8 DUP1 EXTCODESIZE ISZERO DUP1 ISZERO PUSH2 0x7E6 JUMPI PUSH1 0x0 DUP1 REVERT JUMPDEST POP GAS CALL ISZERO DUP1 ISZERO PUSH2 0x7FA JUMPI RETURNDATASIZE PUSH1 0x0 DUP1 RETURNDATACOPY RETURNDATASIZE PUSH1 0x0 REVERT JUMPDEST POP POP POP POP POP POP JUMP JUMPDEST PUSH1 0x0 DUP1 PUSH20 0xFFFFFFFFFFFFFFFFFFFFFFFFFFFFFFFFFFFFFFFF AND CALLER PUSH20 0xFFFFFFFFFFFFFFFFFFFFFFFFFFFFFFFFFFFFFFFF AND SUB PUSH2 0x872 JUMPI PUSH1 0x40 MLOAD PUSH32 0x8C379A000000000000000000000000000000000000000000000000000000000 DUP2 MSTORE PUSH1 0x4 ADD PUSH2 0x869 SWAP1 PUSH2 0x1A82 JUMP JUMPDEST PUSH1 0x40 MLOAD DUP1 SWAP2 SUB SWAP1 REVERT JUMPDEST PUSH1 0x0 PUSH1 0x40 MLOAD PUSH2 0x880 SWAP1 PUSH2 0xAD3 JUMP JUMPDEST PUSH1 0x40 MLOAD DUP1 SWAP2 SUB SWAP1 PUSH1 0x0 CREATE DUP1 ISZERO DUP1 ISZERO PUSH2 0x89C JUMPI RETURNDATASIZE PUSH1 0x0 DUP1 RETURNDATACOPY RETURNDATASIZE PUSH1 0x0 REVERT JUMPDEST POP SWAP1 POP DUP1 SWAP2 POP PUSH2 0x8AA PUSH2 0xAE0 JUMP JUMPDEST CALLER DUP2 PUSH1 0x0 ADD SWAP1 PUSH20 0xFFFFFFFFFFFFFFFFFFFFFFFFFFFFFFFFFFFFFFFF AND SWAP1 DUP2 PUSH20 0xFFFFFFFFFFFFFFFFFFFFFFFFFFFFFFFFFFFFFFFF AND DUP2 MSTORE POP POP DUP2 DUP2 PUSH1 0x20 ADD SWAP1 PUSH20 0xFFFFFFFFFFFFFFFFFFFFFFFFFFFFFFFFFFFFFFFF AND SWAP1 DUP2 PUSH20 0xFFFFFFFFFFFFFFFFFFFFFFFFFFFFFFFFFFFFFFFF AND DUP2 MSTORE POP POP PUSH1 0x0 DUP1 CALLER PUSH20 0xFFFFFFFFFFFFFFFFFFFFFFFFFFFFFFFFFFFFFFFF AND PUSH20 0xFFFFFFFFFFFFFFFFFFFFFFFFFFFFFFFFFFFFFFFF AND DUP2 MSTORE PUSH1 0x20 ADD SWAP1 DUP2 MSTORE PUSH1 0x20 ADD PUSH1 0x0 KECCAK256 DUP2 SWAP1 DUP1 PUSH1 0x1 DUP2 SLOAD ADD DUP1 DUP3 SSTORE DUP1 SWAP2 POP POP PUSH1 0x1 SWAP1 SUB SWAP1 PUSH1 0x0 MSTORE PUSH1 0x20 PUSH1 0x0 KECCAK256 SWAP1 PUSH1 0x2 MUL ADD PUSH1 0x0 SWAP1 SWAP2 SWAP1 SWAP2 SWAP1 SWAP2 POP PUSH1 0x0 DUP3 ADD MLOAD DUP2 PUSH1 0x0 ADD PUSH1 0x0 PUSH2 0x100 EXP DUP2 SLOAD DUP2 PUSH20 0xFFFFFFFFFFFFFFFFFFFFFFFFFFFFFFFFFFFFFFFF MUL NOT AND SWAP1 DUP4 PUSH20 0xFFFFFFFFFFFFFFFFFFFFFFFFFFFFFFFFFFFFFFFF AND MUL OR SWAP1 SSTORE POP PUSH1 0x20 DUP3 ADD MLOAD DUP2 PUSH1 0x1 ADD PUSH1 0x0 PUSH2 0x100 EXP DUP2 SLOAD DUP2 PUSH20 0xFFFFFFFFFFFFFFFFFFFFFFFFFFFFFFFFFFFFFFFF MUL NOT AND SWAP1 DUP4 PUSH20 0xFFFFFFFFFFFFFFFFFFFFFFFFFFFFFFFFFFFFFFFF AND MUL OR SWAP1 SSTORE POP POP POP PUSH1 0x1 DUP2 SWAP1 DUP1 PUSH1 0x1 DUP2 SLOAD ADD DUP1 DUP3 SSTORE DUP1 SWAP2 POP POP PUSH1 0x1 SWAP1 SUB SWAP1 PUSH1 0x0 MSTORE PUSH1 0x20 PUSH1 0x0 KECCAK256 SWAP1 PUSH1 0x2 MUL ADD PUSH1 0x0 SWAP1 SWAP2 SWAP1 SWAP2 SWAP1 SWAP2 POP PUSH1 0x0 DUP3 ADD MLOAD DUP2 PUSH1 0x0 ADD PUSH1 0x0 PUSH2 0x100 EXP DUP2 SLOAD DUP2 PUSH20 0xFFFFFFFFFFFFFFFFFFFFFFFFFFFFFFFFFFFFFFFF MUL NOT AND SWAP1 DUP4 PUSH20 0xFFFFFFFFFFFFFFFFFFFFFFFFFFFFFFFFFFFFFFFF AND MUL OR SWAP1 SSTORE POP PUSH1 0x20 DUP3 ADD MLOAD DUP2 PUSH1 0x1 ADD PUSH1 0x0 PUSH2 0x100 EXP DUP2 SLOAD DUP2 PUSH20 0xFFFFFFFFFFFFFFFFFFFFFFFFFFFFFFFFFFFFFFFF MUL NOT AND SWAP1 DUP4 PUSH20 0xFFFFFFFFFFFFFFFFFFFFFFFFFFFFFFFFFFFFFFFF AND MUL OR SWAP1 SSTORE POP POP POP POP POP SWAP1 JUMP JUMPDEST PUSH2 0x1FB8 DUP1 PUSH2 0x1AA3 DUP4 CODECOPY ADD SWAP1 JUMP JUMPDEST PUSH1 0x40 MLOAD DUP1 PUSH1 0x40 ADD PUSH1 0x40 MSTORE DUP1 PUSH1 0x0 PUSH20 0xFFFFFFFFFFFFFFFFFFFFFFFFFFFFFFFFFFFFFFFF AND DUP2 MSTORE PUSH1 0x20 ADD PUSH1 0x0 PUSH20 0xFFFFFFFFFFFFFFFFFFFFFFFFFFFFFFFFFFFFFFFF AND DUP2 MSTORE POP SWAP1 JUMP JUMPDEST PUSH1 0x0 PUSH1 0x40 MLOAD SWAP1 POP SWAP1 JUMP JUMPDEST PUSH1 0x0 DUP1 REVERT JUMPDEST PUSH1 0x0 DUP1 REVERT JUMPDEST PUSH1 0x0 PUSH20 0xFFFFFFFFFFFFFFFFFFFFFFFFFFFFFFFFFFFFFFFF DUP3 AND SWAP1 POP SWAP2 SWAP1 POP JUMP JUMPDEST PUSH1 0x0 PUSH2 0xB65 DUP3 PUSH2 0xB3A JUMP JUMPDEST SWAP1 POP SWAP2 SWAP1 POP JUMP JUMPDEST PUSH2 0xB75 DUP2 PUSH2 0xB5A JUMP JUMPDEST DUP2 EQ PUSH2 0xB80 JUMPI PUSH1 0x0 DUP1 REVERT JUMPDEST POP JUMP JUMPDEST PUSH1 0x0 DUP2 CALLDATALOAD SWAP1 POP PUSH2 0xB92 DUP2 PUSH2 0xB6C JUMP JUMPDEST SWAP3 SWAP2 POP POP JUMP JUMPDEST PUSH1 0x0 DUP1 REVERT JUMPDEST PUSH1 0x0 DUP1 REVERT JUMPDEST PUSH1 0x0 PUSH1 0x1F NOT PUSH1 0x1F DUP4 ADD AND SWAP1 POP SWAP2 SWAP1 POP JUMP JUMPDEST PUSH32 0x4E487B7100000000000000000000000000000000000000000000000000000000 PUSH1 0x0 MSTORE PUSH1 0x41 PUSH1 0x4 MSTORE PUSH1 0x24 PUSH1 0x0 REVERT JUMPDEST PUSH2 0xBEB DUP3 PUSH2 0xBA2 JUMP JUMPDEST DUP2 ADD DUP2 DUP2 LT PUSH8 0xFFFFFFFFFFFFFFFF DUP3 GT OR ISZERO PUSH2 0xC0A JUMPI PUSH2 0xC09 PUSH2 0xBB3 JUMP JUMPDEST JUMPDEST DUP1 PUSH1 0x40 MSTORE POP POP POP JUMP JUMPDEST PUSH1 0x0 PUSH2 0xC1D PUSH2 0xB26 JUMP JUMPDEST SWAP1 POP PUSH2 0xC29 DUP3 DUP3 PUSH2 0xBE2 JUMP JUMPDEST SWAP2 SWAP1 POP JUMP JUMPDEST PUSH1 0x0 PUSH8 0xFFFFFFFFFFFFFFFF DUP3 GT ISZERO PUSH2 0xC49 JUMPI PUSH2 0xC48 PUSH2 0xBB3 JUMP JUMPDEST JUMPDEST PUSH2 0xC52 DUP3 PUSH2 0xBA2 JUMP JUMPDEST SWAP1 POP PUSH1 0x20 DUP2 ADD SWAP1 POP SWAP2 SWAP1 POP JUMP JUMPDEST DUP3 DUP2 DUP4 CALLDATACOPY PUSH1 0x0 DUP4 DUP4 ADD MSTORE POP POP POP JUMP JUMPDEST PUSH1 0x0 PUSH2 0xC81 PUSH2 0xC7C DUP5 PUSH2 0xC2E JUMP JUMPDEST PUSH2 0xC13 JUMP JUMPDEST SWAP1 POP DUP3 DUP2 MSTORE PUSH1 0x20 DUP2 ADD DUP5 DUP5 DUP5 ADD GT ISZERO PUSH2 0xC9D JUMPI PUSH2 0xC9C PUSH2 0xB9D JUMP JUMPDEST JUMPDEST PUSH2 0xCA8 DUP5 DUP3 DUP6 PUSH2 0xC5F JUMP JUMPDEST POP SWAP4 SWAP3 POP POP POP JUMP JUMPDEST PUSH1 0x0 DUP3 PUSH1 0x1F DUP4 ADD SLT PUSH2 0xCC5 JUMPI PUSH2 0xCC4 PUSH2 0xB98 JUMP JUMPDEST JUMPDEST DUP2 CALLDATALOAD PUSH2 0xCD5 DUP5 DUP3 PUSH1 0x20 DUP7 ADD PUSH2 0xC6E JUMP JUMPDEST SWAP2 POP POP SWAP3 SWAP2 POP POP JUMP JUMPDEST PUSH1 0x0 PUSH2 0xFFFF DUP3 AND SWAP1 POP SWAP2 SWAP1 POP JUMP JUMPDEST PUSH2 0xCF5 DUP2 PUSH2 0xCDE JUMP JUMPDEST DUP2 EQ PUSH2 0xD00 JUMPI PUSH1 0x0 DUP1 REVERT JUMPDEST POP JUMP JUMPDEST PUSH1 0x0 DUP2 CALLDATALOAD SWAP1 POP PUSH2 0xD12 DUP2 PUSH2 0xCEC JUMP JUMPDEST SWAP3 SWAP2 POP POP JUMP JUMPDEST PUSH1 0x0 DUP1 PUSH1 0x0 DUP1 PUSH1 0x80 DUP6 DUP8 SUB SLT ISZERO PUSH2 0xD32 JUMPI PUSH2 0xD31 PUSH2 0xB30 JUMP JUMPDEST JUMPDEST PUSH1 0x0 PUSH2 0xD40 DUP8 DUP3 DUP9 ADD PUSH2 0xB83 JUMP JUMPDEST SWAP5 POP POP PUSH1 0x20 DUP6 ADD CALLDATALOAD PUSH8 0xFFFFFFFFFFFFFFFF DUP2 GT ISZERO PUSH2 0xD61 JUMPI PUSH2 0xD60 PUSH2 0xB35 JUMP JUMPDEST JUMPDEST PUSH2 0xD6D DUP8 DUP3 DUP9 ADD PUSH2 0xCB0 JUMP JUMPDEST SWAP4 POP POP PUSH1 0x40 DUP6 ADD CALLDATALOAD PUSH8 0xFFFFFFFFFFFFFFFF DUP2 GT ISZERO PUSH2 0xD8E JUMPI PUSH2 0xD8D PUSH2 0xB35 JUMP JUMPDEST JUMPDEST PUSH2 0xD9A DUP8 DUP3 DUP9 ADD PUSH2 0xCB0 JUMP JUMPDEST SWAP3 POP POP PUSH1 0x60 PUSH2 0xDAB DUP8 DUP3 DUP9 ADD PUSH2 0xD03 JUMP JUMPDEST SWAP2 POP POP SWAP3 SWAP6 SWAP2 SWAP5 POP SWAP3 POP JUMP JUMPDEST PUSH1 0x0 PUSH1 0xFF DUP3 AND SWAP1 POP SWAP2 SWAP1 POP JUMP JUMPDEST PUSH2 0xDCD DUP2 PUSH2 0xDB7 JUMP JUMPDEST DUP2 EQ PUSH2 0xDD8 JUMPI PUSH1 0x0 DUP1 REVERT JUMPDEST POP JUMP JUMPDEST PUSH1 0x0 DUP2 CALLDATALOAD SWAP1 POP PUSH2 0xDEA DUP2 PUSH2 0xDC4 JUMP JUMPDEST SWAP3 SWAP2 POP POP JUMP JUMPDEST PUSH1 0x0 PUSH1 0x20 DUP3 DUP5 SUB SLT ISZERO PUSH2 0xE06 JUMPI PUSH2 0xE05 PUSH2 0xB30 JUMP JUMPDEST JUMPDEST PUSH1 0x0 PUSH2 0xE14 DUP5 DUP3 DUP6 ADD PUSH2 0xDDB JUMP JUMPDEST SWAP2 POP POP SWAP3 SWAP2 POP POP JUMP JUMPDEST PUSH2 0xE26 DUP2 PUSH2 0xB5A JUMP JUMPDEST DUP3 MSTORE POP POP JUMP JUMPDEST PUSH1 0x0 PUSH1 0x40 DUP3 ADD SWAP1 POP PUSH2 0xE41 PUSH1 0x0 DUP4 ADD DUP6 PUSH2 0xE1D JUMP JUMPDEST PUSH2 0xE4E PUSH1 0x20 DUP4 ADD DUP5 PUSH2 0xE1D JUMP JUMPDEST SWAP4 SWAP3 POP POP POP JUMP JUMPDEST PUSH1 0x0 DUP1 PUSH1 0x40 DUP4 DUP6 SUB SLT ISZERO PUSH2 0xE6C JUMPI PUSH2 0xE6B PUSH2 0xB30 JUMP JUMPDEST JUMPDEST PUSH1 0x0 PUSH2 0xE7A DUP6 DUP3 DUP7 ADD PUSH2 0xB83 JUMP JUMPDEST SWAP3 POP POP PUSH1 0x20 PUSH2 0xE8B DUP6 DUP3 DUP7 ADD PUSH2 0xDDB JUMP JUMPDEST SWAP2 POP POP SWAP3 POP SWAP3 SWAP1 POP JUMP JUMPDEST PUSH1 0x0 DUP2 MLOAD SWAP1 POP SWAP2 SWAP1 POP JUMP JUMPDEST PUSH1 0x0 DUP3 DUP3 MSTORE PUSH1 0x20 DUP3 ADD SWAP1 POP SWAP3 SWAP2 POP POP JUMP JUMPDEST PUSH1 0x0 JUMPDEST DUP4 DUP2 LT ISZERO PUSH2 0xECF JUMPI DUP1 DUP3 ADD MLOAD DUP2 DUP5 ADD MSTORE PUSH1 0x20 DUP2 ADD SWAP1 POP PUSH2 0xEB4 JUMP JUMPDEST PUSH1 0x0 DUP5 DUP5 ADD MSTORE POP POP POP POP JUMP JUMPDEST PUSH1 0x0 PUSH2 0xEE6 DUP3 PUSH2 0xE95 JUMP JUMPDEST PUSH2 0xEF0 DUP2 DUP6 PUSH2 0xEA0 JUMP JUMPDEST SWAP4 POP PUSH2 0xF00 DUP2 DUP6 PUSH1 0x20 DUP7 ADD PUSH2 0xEB1 JUMP JUMPDEST PUSH2 0xF09 DUP2 PUSH2 0xBA2 JUMP JUMPDEST DUP5 ADD SWAP2 POP POP SWAP3 SWAP2 POP POP JUMP JUMPDEST PUSH2 0xF1D DUP2 PUSH2 0xCDE JUMP JUMPDEST DUP3 MSTORE POP POP JUMP JUMPDEST PUSH1 0x0 DUP2 MLOAD SWAP1 POP SWAP2 SWAP1 POP JUMP JUMPDEST PUSH1 0x0 DUP3 DUP3 MSTORE PUSH1 0x20 DUP3 ADD SWAP1 POP SWAP3 SWAP2 POP POP JUMP JUMPDEST PUSH1 0x0 DUP2 SWAP1 POP PUSH1 0x20 DUP3 ADD SWAP1 POP SWAP2 SWAP1 POP JUMP JUMPDEST PUSH2 0xF58 DUP2 PUSH2 0xB5A JUMP JUMPDEST DUP3 MSTORE POP POP JUMP JUMPDEST PUSH1 0x0 PUSH2 0xF6A DUP4 DUP4 PUSH2 0xF4F JUMP JUMPDEST PUSH1 0x20 DUP4 ADD SWAP1 POP SWAP3 SWAP2 POP POP JUMP JUMPDEST PUSH1 0x0 PUSH1 0x20 DUP3 ADD SWAP1 POP SWAP2 SWAP1 POP JUMP JUMPDEST PUSH1 0x0 PUSH2 0xF8E DUP3 PUSH2 0xF23 JUMP JUMPDEST PUSH2 0xF98 DUP2 DUP6 PUSH2 0xF2E JUMP JUMPDEST SWAP4 POP PUSH2 0xFA3 DUP4 PUSH2 0xF3F JUMP JUMPDEST DUP1 PUSH1 0x0 JUMPDEST DUP4 DUP2 LT ISZERO PUSH2 0xFD4 JUMPI DUP2 MLOAD PUSH2 0xFBB DUP9 DUP3 PUSH2 0xF5E JUMP JUMPDEST SWAP8 POP PUSH2 0xFC6 DUP4 PUSH2 0xF76 JUMP JUMPDEST SWAP3 POP POP PUSH1 0x1 DUP2 ADD SWAP1 POP PUSH2 0xFA7 JUMP JUMPDEST POP DUP6 SWAP4 POP POP POP POP SWAP3 SWAP2 POP POP JUMP JUMPDEST PUSH32 0x4E487B7100000000000000000000000000000000000000000000000000000000 PUSH1 0x0 MSTORE PUSH1 0x21 PUSH1 0x4 MSTORE PUSH1 0x24 PUSH1 0x0 REVERT JUMPDEST PUSH1 0x4 DUP2 LT PUSH2 0x1021 JUMPI PUSH2 0x1020 PUSH2 0xFE1 JUMP JUMPDEST JUMPDEST POP JUMP JUMPDEST PUSH1 0x0 DUP2 SWAP1 POP PUSH2 0x1032 DUP3 PUSH2 0x1010 JUMP JUMPDEST SWAP2 SWAP1 POP JUMP JUMPDEST PUSH1 0x0 PUSH2 0x1042 DUP3 PUSH2 0x1024 JUMP JUMPDEST SWAP1 POP SWAP2 SWAP1 POP JUMP JUMPDEST PUSH2 0x1052 DUP2 PUSH2 0x1037 JUMP JUMPDEST DUP3 MSTORE POP POP JUMP JUMPDEST PUSH1 0x0 PUSH1 0xC0 DUP3 ADD SWAP1 POP DUP2 DUP2 SUB PUSH1 0x0 DUP4 ADD MSTORE PUSH2 0x1072 DUP2 DUP10 PUSH2 0xEDB JUMP JUMPDEST SWAP1 POP DUP2 DUP2 SUB PUSH1 0x20 DUP4 ADD MSTORE PUSH2 0x1086 DUP2 DUP9 PUSH2 0xEDB JUMP JUMPDEST SWAP1 POP PUSH2 0x1095 PUSH1 0x40 DUP4 ADD DUP8 PUSH2 0xF14 JUMP JUMPDEST DUP2 DUP2 SUB PUSH1 0x60 DUP4 ADD MSTORE PUSH2 0x10A7 DUP2 DUP7 PUSH2 0xF83 JUMP JUMPDEST SWAP1 POP PUSH2 0x10B6 PUSH1 0x80 DUP4 ADD DUP6 PUSH2 0xF14 JUMP JUMPDEST PUSH2 0x10C3 PUSH1 0xA0 DUP4 ADD DUP5 PUSH2 0x1049 JUMP JUMPDEST SWAP8 SWAP7 POP POP POP POP POP POP POP JUMP JUMPDEST PUSH1 0x0 DUP2 MLOAD SWAP1 POP SWAP2 SWAP1 POP JUMP JUMPDEST PUSH1 0x0 DUP3 DUP3 MSTORE PUSH1 0x20 DUP3 ADD SWAP1 POP SWAP3 SWAP2 POP POP JUMP JUMPDEST PUSH1 0x0 DUP2 SWAP1 POP PUSH1 0x20 DUP3 ADD SWAP1 POP SWAP2 SWAP1 POP JUMP JUMPDEST PUSH1 0x40 DUP3 ADD PUSH1 0x0 DUP3 ADD MLOAD PUSH2 0x1110 PUSH1 0x0 DUP6 ADD DUP3 PUSH2 0xF4F JUMP JUMPDEST POP PUSH1 0x20 DUP3 ADD MLOAD PUSH2 0x1123 PUSH1 0x20 DUP6 ADD DUP3 PUSH2 0xF4F JUMP JUMPDEST POP POP POP POP JUMP JUMPDEST PUSH1 0x0 PUSH2 0x1135 DUP4 DUP4 PUSH2 0x10FA JUMP JUMPDEST PUSH1 0x40 DUP4 ADD SWAP1 POP SWAP3 SWAP2 POP POP JUMP JUMPDEST PUSH1 0x0 PUSH1 0x20 DUP3 ADD SWAP1 POP SWAP2 SWAP1 POP JUMP JUMPDEST PUSH1 0x0 PUSH2 0x1159 DUP3 PUSH2 0x10CE JUMP JUMPDEST PUSH2 0x1163 DUP2 DUP6 PUSH2 0x10D9 JUMP JUMPDEST SWAP4 POP PUSH2 0x116E DUP4 PUSH2 0x10EA JUMP JUMPDEST DUP1 PUSH1 0x0 JUMPDEST DUP4 DUP2 LT ISZERO PUSH2 0x119F JUMPI DUP2 MLOAD PUSH2 0x1186 DUP9 DUP3 PUSH2 0x1129 JUMP JUMPDEST SWAP8 POP PUSH2 0x1191 DUP4 PUSH2 0x1141 JUMP JUMPDEST SWAP3 POP POP PUSH1 0x1 DUP2 ADD SWAP1 POP PUSH2 0x1172 JUMP JUMPDEST POP DUP6 SWAP4 POP POP POP POP SWAP3 SWAP2 POP POP JUMP JUMPDEST PUSH1 0x0 PUSH1 0x20 DUP3 ADD SWAP1 POP DUP2 DUP2 SUB PUSH1 0x0 DUP4 ADD MSTORE PUSH2 0x11C6 DUP2 DUP5 PUSH2 0x114E JUMP JUMPDEST SWAP1 POP SWAP3 SWAP2 POP POP JUMP JUMPDEST PUSH1 0x0 PUSH1 0x20 DUP3 DUP5 SUB SLT ISZERO PUSH2 0x11E4 JUMPI PUSH2 0x11E3 PUSH2 0xB30 JUMP JUMPDEST JUMPDEST PUSH1 0x0 PUSH2 0x11F2 DUP5 DUP3 DUP6 ADD PUSH2 0xB83 JUMP JUMPDEST SWAP2 POP POP SWAP3 SWAP2 POP POP JUMP JUMPDEST PUSH1 0x0 DUP2 MLOAD SWAP1 POP SWAP2 SWAP1 POP JUMP JUMPDEST PUSH1 0x0 DUP3 DUP3 MSTORE PUSH1 0x20 DUP3 ADD SWAP1 POP SWAP3 SWAP2 POP POP JUMP JUMPDEST PUSH1 0x0 DUP2 SWAP1 POP PUSH1 0x20 DUP3 ADD SWAP1 POP SWAP2 SWAP1 POP JUMP JUMPDEST PUSH1 0x0 DUP3 DUP3 MSTORE PUSH1 0x20 DUP3 ADD SWAP1 POP SWAP3 SWAP2 POP POP JUMP JUMPDEST PUSH1 0x0 PUSH2 0x1243 DUP3 PUSH2 0xE95 JUMP JUMPDEST PUSH2 0x124D DUP2 DUP6 PUSH2 0x1227 JUMP JUMPDEST SWAP4 POP PUSH2 0x125D DUP2 DUP6 PUSH1 0x20 DUP7 ADD PUSH2 0xEB1 JUMP JUMPDEST PUSH2 0x1266 DUP2 PUSH2 0xBA2 JUMP JUMPDEST DUP5 ADD SWAP2 POP POP SWAP3 SWAP2 POP POP JUMP JUMPDEST PUSH2 0x127A DUP2 PUSH2 0xCDE JUMP JUMPDEST DUP3 MSTORE POP POP JUMP JUMPDEST PUSH1 0x0 DUP3 DUP3 MSTORE PUSH1 0x20 DUP3 ADD SWAP1 POP SWAP3 SWAP2 POP POP JUMP JUMPDEST PUSH1 0x0 PUSH2 0x129C DUP3 PUSH2 0xF23 JUMP JUMPDEST PUSH2 0x12A6 DUP2 DUP6 PUSH2 0x1280 JUMP JUMPDEST SWAP4 POP PUSH2 0x12B1 DUP4 PUSH2 0xF3F JUMP JUMPDEST DUP1 PUSH1 0x0 JUMPDEST DUP4 DUP2 LT ISZERO PUSH2 0x12E2 JUMPI DUP2 MLOAD PUSH2 0x12C9 DUP9 DUP3 PUSH2 0xF5E JUMP JUMPDEST SWAP8 POP PUSH2 0x12D4 DUP4 PUSH2 0xF76 JUMP JUMPDEST SWAP3 POP POP PUSH1 0x1 DUP2 ADD SWAP1 POP PUSH2 0x12B5 JUMP JUMPDEST POP DUP6 SWAP4 POP POP POP POP SWAP3 SWAP2 POP POP JUMP JUMPDEST PUSH2 0x12F8 DUP2 PUSH2 0x1037 JUMP JUMPDEST DUP3 MSTORE POP POP JUMP JUMPDEST PUSH1 0x0 PUSH1 0xC0 DUP4 ADD PUSH1 0x0 DUP4 ADD MLOAD DUP5 DUP3 SUB PUSH1 0x0 DUP7 ADD MSTORE PUSH2 0x131B DUP3 DUP3 PUSH2 0x1238 JUMP JUMPDEST SWAP2 POP POP PUSH1 0x20 DUP4 ADD MLOAD DUP5 DUP3 SUB PUSH1 0x20 DUP7 ADD MSTORE PUSH2 0x1335 DUP3 DUP3 PUSH2 0x1238 JUMP JUMPDEST SWAP2 POP POP PUSH1 0x40 DUP4 ADD MLOAD PUSH2 0x134A PUSH1 0x40 DUP7 ADD DUP3 PUSH2 0x1271 JUMP JUMPDEST POP PUSH1 0x60 DUP4 ADD MLOAD DUP5 DUP3 SUB PUSH1 0x60 DUP7 ADD MSTORE PUSH2 0x1362 DUP3 DUP3 PUSH2 0x1291 JUMP JUMPDEST SWAP2 POP POP PUSH1 0x80 DUP4 ADD MLOAD PUSH2 0x1377 PUSH1 0x80 DUP7 ADD DUP3 PUSH2 0x1271 JUMP JUMPDEST POP PUSH1 0xA0 DUP4 ADD MLOAD PUSH2 0x138A PUSH1 0xA0 DUP7 ADD DUP3 PUSH2 0x12EF JUMP JUMPDEST POP DUP1 SWAP2 POP POP SWAP3 SWAP2 POP POP JUMP JUMPDEST PUSH1 0x0 PUSH2 0x13A1 DUP4 DUP4 PUSH2 0x12FE JUMP JUMPDEST SWAP1 POP SWAP3 SWAP2 POP POP JUMP JUMPDEST PUSH1 0x0 PUSH1 0x20 DUP3 ADD SWAP1 POP SWAP2 SWAP1 POP JUMP JUMPDEST PUSH1 0x0 PUSH2 0x13C1 DUP3 PUSH2 0x11FB JUMP JUMPDEST PUSH2 0x13CB DUP2 DUP6 PUSH2 0x1206 JUMP JUMPDEST SWAP4 POP DUP4 PUSH1 0x20 DUP3 MUL DUP6 ADD PUSH2 0x13DD DUP6 PUSH2 0x1217 JUMP JUMPDEST DUP1 PUSH1 0x0 JUMPDEST DUP6 DUP2 LT ISZERO PUSH2 0x1419 JUMPI DUP5 DUP5 SUB DUP10 MSTORE DUP2 MLOAD PUSH2 0x13FA DUP6 DUP3 PUSH2 0x1395 JUMP JUMPDEST SWAP5 POP PUSH2 0x1405 DUP4 PUSH2 0x13A9 JUMP JUMPDEST SWAP3 POP PUSH1 0x20 DUP11 ADD SWAP10 POP POP PUSH1 0x1 DUP2 ADD SWAP1 POP PUSH2 0x13E1 JUMP JUMPDEST POP DUP3 SWAP8 POP DUP8 SWAP6 POP POP POP POP POP POP SWAP3 SWAP2 POP POP JUMP JUMPDEST PUSH1 0x0 PUSH1 0x20 DUP3 ADD SWAP1 POP DUP2 DUP2 SUB PUSH1 0x0 DUP4 ADD MSTORE PUSH2 0x1445 DUP2 DUP5 PUSH2 0x13B6 JUMP JUMPDEST SWAP1 POP SWAP3 SWAP2 POP POP JUMP JUMPDEST PUSH1 0x0 DUP2 SWAP1 POP SWAP2 SWAP1 POP JUMP JUMPDEST PUSH2 0x1460 DUP2 PUSH2 0x144D JUMP JUMPDEST DUP3 MSTORE POP POP JUMP JUMPDEST PUSH1 0x0 PUSH1 0x20 DUP3 ADD SWAP1 POP PUSH2 0x147B PUSH1 0x0 DUP4 ADD DUP5 PUSH2 0x1457 JUMP JUMPDEST SWAP3 SWAP2 POP POP JUMP JUMPDEST PUSH1 0x0 PUSH1 0x20 DUP3 ADD SWAP1 POP PUSH2 0x1496 PUSH1 0x0 DUP4 ADD DUP5 PUSH2 0xE1D JUMP JUMPDEST SWAP3 SWAP2 POP POP JUMP JUMPDEST PUSH1 0x0 PUSH1 0x60 DUP3 ADD SWAP1 POP DUP2 DUP2 SUB PUSH1 0x0 DUP4 ADD MSTORE PUSH2 0x14B6 DUP2 DUP7 PUSH2 0xEDB JUMP JUMPDEST SWAP1 POP DUP2 DUP2 SUB PUSH1 0x20 DUP4 ADD MSTORE PUSH2 0x14CA DUP2 DUP6 PUSH2 0xEDB JUMP JUMPDEST SWAP1 POP PUSH2 0x14D9 PUSH1 0x40 DUP4 ADD DUP5 PUSH2 0xF14 JUMP JUMPDEST SWAP5 SWAP4 POP POP POP POP JUMP JUMPDEST PUSH32 0x4F7574206F6620626F756E640000000000000000000000000000000000000000 PUSH1 0x0 DUP3 ADD MSTORE POP JUMP JUMPDEST PUSH1 0x0 PUSH2 0x1517 PUSH1 0xC DUP4 PUSH2 0xEA0 JUMP JUMPDEST SWAP2 POP PUSH2 0x1522 DUP3 PUSH2 0x14E1 JUMP JUMPDEST PUSH1 0x20 DUP3 ADD SWAP1 POP SWAP2 SWAP1 POP JUMP JUMPDEST PUSH1 0x0 PUSH1 0x20 DUP3 ADD SWAP1 POP DUP2 DUP2 SUB PUSH1 0x0 DUP4 ADD MSTORE PUSH2 0x1546 DUP2 PUSH2 0x150A JUMP JUMPDEST SWAP1 POP SWAP2 SWAP1 POP JUMP JUMPDEST PUSH32 0x4E487B7100000000000000000000000000000000000000000000000000000000 PUSH1 0x0 MSTORE PUSH1 0x32 PUSH1 0x4 MSTORE PUSH1 0x24 PUSH1 0x0 REVERT JUMPDEST PUSH2 0x1585 DUP2 PUSH2 0xDB7 JUMP JUMPDEST DUP3 MSTORE POP POP JUMP JUMPDEST PUSH1 0x0 PUSH1 0x20 DUP3 ADD SWAP1 POP PUSH2 0x15A0 PUSH1 0x0 DUP4 ADD DUP5 PUSH2 0x157C JUMP JUMPDEST SWAP3 SWAP2 POP POP JUMP JUMPDEST PUSH1 0x0 PUSH2 0x15B9 PUSH2 0x15B4 DUP5 PUSH2 0xC2E JUMP JUMPDEST PUSH2 0xC13 JUMP JUMPDEST SWAP1 POP DUP3 DUP2 MSTORE PUSH1 0x20 DUP2 ADD DUP5 DUP5 DUP5 ADD GT ISZERO PUSH2 0x15D5 JUMPI PUSH2 0x15D4 PUSH2 0xB9D JUMP JUMPDEST JUMPDEST PUSH2 0x15E0 DUP5 DUP3 DUP6 PUSH2 0xEB1 JUMP JUMPDEST POP SWAP4 SWAP3 POP POP POP JUMP JUMPDEST PUSH1 0x0 DUP3 PUSH1 0x1F DUP4 ADD SLT PUSH2 0x15FD JUMPI PUSH2 0x15FC PUSH2 0xB98 JUMP JUMPDEST JUMPDEST DUP2 MLOAD PUSH2 0x160D DUP5 DUP3 PUSH1 0x20 DUP7 ADD PUSH2 0x15A6 JUMP JUMPDEST SWAP2 POP POP SWAP3 SWAP2 POP POP JUMP JUMPDEST PUSH1 0x0 DUP2 MLOAD SWAP1 POP PUSH2 0x1625 DUP2 PUSH2 0xCEC JUMP JUMPDEST SWAP3 SWAP2 POP POP JUMP JUMPDEST PUSH1 0x0 PUSH8 0xFFFFFFFFFFFFFFFF DUP3 GT ISZERO PUSH2 0x1646 JUMPI PUSH2 0x1645 PUSH2 0xBB3 JUMP JUMPDEST JUMPDEST PUSH1 0x20 DUP3 MUL SWAP1 POP PUSH1 0x20 DUP2 ADD SWAP1 POP SWAP2 SWAP1 POP JUMP JUMPDEST PUSH1 0x0 DUP1 REVERT JUMPDEST PUSH1 0x0 DUP2 MLOAD SWAP1 POP PUSH2 0x166B DUP2 PUSH2 0xB6C JUMP JUMPDEST SWAP3 SWAP2 POP POP JUMP JUMPDEST PUSH1 0x0 PUSH2 0x1684 PUSH2 0x167F DUP5 PUSH2 0x162B JUMP JUMPDEST PUSH2 0xC13 JUMP JUMPDEST SWAP1 POP DUP1 DUP4 DUP3 MSTORE PUSH1 0x20 DUP3 ADD SWAP1 POP PUSH1 0x20 DUP5 MUL DUP4 ADD DUP6 DUP2 GT ISZERO PUSH2 0x16A7 JUMPI PUSH2 0x16A6 PUSH2 0x1657 JUMP JUMPDEST JUMPDEST DUP4 JUMPDEST DUP2 DUP2 LT ISZERO PUSH2 0x16D0 JUMPI DUP1 PUSH2 0x16BC DUP9 DUP3 PUSH2 0x165C JUMP JUMPDEST DUP5 MSTORE PUSH1 0x20 DUP5 ADD SWAP4 POP POP PUSH1 0x20 DUP2 ADD SWAP1 POP PUSH2 0x16A9 JUMP JUMPDEST POP POP POP SWAP4 SWAP3 POP POP POP JUMP JUMPDEST PUSH1 0x0 DUP3 PUSH1 0x1F DUP4 ADD SLT PUSH2 0x16EF JUMPI PUSH2 0x16EE PUSH2 0xB98 JUMP JUMPDEST JUMPDEST DUP2 MLOAD PUSH2 0x16FF DUP5 DUP3 PUSH1 0x20 DUP7 ADD PUSH2 0x1671 JUMP JUMPDEST SWAP2 POP POP SWAP3 SWAP2 POP POP JUMP JUMPDEST PUSH1 0x4 DUP2 LT PUSH2 0x1715 JUMPI PUSH1 0x0 DUP1 REVERT JUMPDEST POP JUMP JUMPDEST PUSH1 0x0 DUP2 MLOAD SWAP1 POP PUSH2 0x1727 DUP2 PUSH2 0x1708 JUMP JUMPDEST SWAP3 SWAP2 POP POP JUMP JUMPDEST PUSH1 0x0 DUP1 PUSH1 0x0 DUP1 PUSH1 0x0 DUP1 PUSH1 0xC0 DUP8 DUP10 SUB SLT ISZERO PUSH2 0x174A JUMPI PUSH2 0x1749 PUSH2 0xB30 JUMP JUMPDEST JUMPDEST PUSH1 0x0 DUP8 ADD MLOAD PUSH8 0xFFFFFFFFFFFFFFFF DUP2 GT ISZERO PUSH2 0x1768 JUMPI PUSH2 0x1767 PUSH2 0xB35 JUMP JUMPDEST JUMPDEST PUSH2 0x1774 DUP10 DUP3 DUP11 ADD PUSH2 0x15E8 JUMP JUMPDEST SWAP7 POP POP PUSH1 0x20 DUP8 ADD MLOAD PUSH8 0xFFFFFFFFFFFFFFFF DUP2 GT ISZERO PUSH2 0x1795 JUMPI PUSH2 0x1794 PUSH2 0xB35 JUMP JUMPDEST JUMPDEST PUSH2 0x17A1 DUP10 DUP3 DUP11 ADD PUSH2 0x15E8 JUMP JUMPDEST SWAP6 POP POP PUSH1 0x40 PUSH2 0x17B2 DUP10 DUP3 DUP11 ADD PUSH2 0x1616 JUMP JUMPDEST SWAP5 POP POP PUSH1 0x60 DUP8 ADD MLOAD PUSH8 0xFFFFFFFFFFFFFFFF DUP2 GT ISZERO PUSH2 0x17D3 JUMPI PUSH2 0x17D2 PUSH2 0xB35 JUMP JUMPDEST JUMPDEST PUSH2 0x17DF DUP10 DUP3 DUP11 ADD PUSH2 0x16DA JUMP JUMPDEST SWAP4 POP POP PUSH1 0x80 PUSH2 0x17F0 DUP10 DUP3 DUP11 ADD PUSH2 0x1616 JUMP JUMPDEST SWAP3 POP POP PUSH1 0xA0 PUSH2 0x1801 DUP10 DUP3 DUP11 ADD PUSH2 0x1718 JUMP JUMPDEST SWAP2 POP POP SWAP3 SWAP6 POP SWAP3 SWAP6 POP SWAP3 SWAP6 JUMP JUMPDEST PUSH1 0x0 PUSH8 0xFFFFFFFFFFFFFFFF DUP3 GT ISZERO PUSH2 0x1829 JUMPI PUSH2 0x1828 PUSH2 0xBB3 JUMP JUMPDEST JUMPDEST PUSH1 0x20 DUP3 MUL SWAP1 POP PUSH1 0x20 DUP2 ADD SWAP1 POP SWAP2 SWAP1 POP JUMP JUMPDEST PUSH1 0x0 DUP1 REVERT JUMPDEST PUSH1 0x0 DUP1 REVERT JUMPDEST PUSH1 0x0 PUSH1 0xC0 DUP3 DUP5 SUB SLT ISZERO PUSH2 0x185A JUMPI PUSH2 0x1859 PUSH2 0x183A JUMP JUMPDEST JUMPDEST PUSH2 0x1864 PUSH1 0xC0 PUSH2 0xC13 JUMP JUMPDEST SWAP1 POP PUSH1 0x0 DUP3 ADD MLOAD PUSH8 0xFFFFFFFFFFFFFFFF DUP2 GT ISZERO PUSH2 0x1884 JUMPI PUSH2 0x1883 PUSH2 0x183F JUMP JUMPDEST JUMPDEST PUSH2 0x1890 DUP5 DUP3 DUP6 ADD PUSH2 0x15E8 JUMP JUMPDEST PUSH1 0x0 DUP4 ADD MSTORE POP PUSH1 0x20 DUP3 ADD MLOAD PUSH8 0xFFFFFFFFFFFFFFFF DUP2 GT ISZERO PUSH2 0x18B4 JUMPI PUSH2 0x18B3 PUSH2 0x183F JUMP JUMPDEST JUMPDEST PUSH2 0x18C0 DUP5 DUP3 DUP6 ADD PUSH2 0x15E8 JUMP JUMPDEST PUSH1 0x20 DUP4 ADD MSTORE POP PUSH1 0x40 PUSH2 0x18D4 DUP5 DUP3 DUP6 ADD PUSH2 0x1616 JUMP JUMPDEST PUSH1 0x40 DUP4 ADD MSTORE POP PUSH1 0x60 DUP3 ADD MLOAD PUSH8 0xFFFFFFFFFFFFFFFF DUP2 GT ISZERO PUSH2 0x18F8 JUMPI PUSH2 0x18F7 PUSH2 0x183F JUMP JUMPDEST JUMPDEST PUSH2 0x1904 DUP5 DUP3 DUP6 ADD PUSH2 0x16DA JUMP JUMPDEST PUSH1 0x60 DUP4 ADD MSTORE POP PUSH1 0x80 PUSH2 0x1918 DUP5 DUP3 DUP6 ADD PUSH2 0x1616 JUMP JUMPDEST PUSH1 0x80 DUP4 ADD MSTORE POP PUSH1 0xA0 PUSH2 0x192C DUP5 DUP3 DUP6 ADD PUSH2 0x1718 JUMP JUMPDEST PUSH1 0xA0 DUP4 ADD MSTORE POP SWAP3 SWAP2 POP POP JUMP JUMPDEST PUSH1 0x0 PUSH2 0x194B PUSH2 0x1946 DUP5 PUSH2 0x180E JUMP JUMPDEST PUSH2 0xC13 JUMP JUMPDEST SWAP1 POP DUP1 DUP4 DUP3 MSTORE PUSH1 0x20 DUP3 ADD SWAP1 POP PUSH1 0x20 DUP5 MUL DUP4 ADD DUP6 DUP2 GT ISZERO PUSH2 0x196E JUMPI PUSH2 0x196D PUSH2 0x1657 JUMP JUMPDEST JUMPDEST DUP4 JUMPDEST DUP2 DUP2 LT ISZERO PUSH2 0x19B5 JUMPI DUP1 MLOAD PUSH8 0xFFFFFFFFFFFFFFFF DUP2 GT ISZERO PUSH2 0x1993 JUMPI PUSH2 0x1992 PUSH2 0xB98 JUMP JUMPDEST JUMPDEST DUP1 DUP7 ADD PUSH2 0x19A0 DUP10 DUP3 PUSH2 0x1844 JUMP JUMPDEST DUP6 MSTORE PUSH1 0x20 DUP6 ADD SWAP5 POP POP POP PUSH1 0x20 DUP2 ADD SWAP1 POP PUSH2 0x1970 JUMP JUMPDEST POP POP POP SWAP4 SWAP3 POP POP POP JUMP JUMPDEST PUSH1 0x0 DUP3 PUSH1 0x1F DUP4 ADD SLT PUSH2 0x19D4 JUMPI PUSH2 0x19D3 PUSH2 0xB98 JUMP JUMPDEST JUMPDEST DUP2 MLOAD PUSH2 0x19E4 DUP5 DUP3 PUSH1 0x20 DUP7 ADD PUSH2 0x1938 JUMP JUMPDEST SWAP2 POP POP SWAP3 SWAP2 POP POP JUMP JUMPDEST PUSH1 0x0 PUSH1 0x20 DUP3 DUP5 SUB SLT ISZERO PUSH2 0x1A03 JUMPI PUSH2 0x1A02 PUSH2 0xB30 JUMP JUMPDEST JUMPDEST PUSH1 0x0 DUP3 ADD MLOAD PUSH8 0xFFFFFFFFFFFFFFFF DUP2 GT ISZERO PUSH2 0x1A21 JUMPI PUSH2 0x1A20 PUSH2 0xB35 JUMP JUMPDEST JUMPDEST PUSH2 0x1A2D DUP5 DUP3 DUP6 ADD PUSH2 0x19BF JUMP JUMPDEST SWAP2 POP POP SWAP3 SWAP2 POP POP JUMP JUMPDEST PUSH32 0x5A65726F206E6F7420616C6C6F77656400000000000000000000000000000000 PUSH1 0x0 DUP3 ADD MSTORE POP JUMP JUMPDEST PUSH1 0x0 PUSH2 0x1A6C PUSH1 0x10 DUP4 PUSH2 0xEA0 JUMP JUMPDEST SWAP2 POP PUSH2 0x1A77 DUP3 PUSH2 0x1A36 JUMP JUMPDEST PUSH1 0x20 DUP3 ADD SWAP1 POP SWAP2 SWAP1 POP JUMP JUMPDEST PUSH1 0x0 PUSH1 0x20 DUP3 ADD SWAP1 POP DUP2 DUP2 SUB PUSH1 0x0 DUP4 ADD MSTORE PUSH2 0x1A9B DUP2 PUSH2 0x1A5F JUMP JUMPDEST SWAP1 POP SWAP2 SWAP1 POP JUMP INVALID PUSH1 0x80 PUSH1 0x40 MSTORE CALLVALUE DUP1 ISZERO PUSH1 0xF JUMPI PUSH1 0x0 DUP1 REVERT JUMPDEST POP PUSH2 0x1F99 DUP1 PUSH2 0x1F PUSH1 0x0 CODECOPY PUSH1 0x0 RETURN INVALID PUSH1 0x80 PUSH1 0x40 MSTORE CALLVALUE DUP1 ISZERO PUSH2 0x10 JUMPI PUSH1 0x0 DUP1 REVERT JUMPDEST POP PUSH1 0x4 CALLDATASIZE LT PUSH2 0x57 JUMPI PUSH1 0x0 CALLDATALOAD PUSH1 0xE0 SHR DUP1 PUSH4 0x13CF08B EQ PUSH2 0x5C JUMPI DUP1 PUSH4 0x5521E3BF EQ PUSH2 0x90 JUMPI DUP1 PUSH4 0x67D7A419 EQ PUSH2 0xAC JUMPI DUP1 PUSH4 0xBCF2E026 EQ PUSH2 0xE1 JUMPI DUP1 PUSH4 0xCCEB68F5 EQ PUSH2 0xFD JUMPI JUMPDEST PUSH1 0x0 DUP1 REVERT JUMPDEST PUSH2 0x76 PUSH1 0x4 DUP1 CALLDATASIZE SUB DUP2 ADD SWAP1 PUSH2 0x71 SWAP2 SWAP1 PUSH2 0x1033 JUMP JUMPDEST PUSH2 0x11B JUMP JUMPDEST PUSH1 0x40 MLOAD PUSH2 0x87 SWAP6 SWAP5 SWAP4 SWAP3 SWAP2 SWAP1 PUSH2 0x1184 JUMP JUMPDEST PUSH1 0x40 MLOAD DUP1 SWAP2 SUB SWAP1 RETURN JUMPDEST PUSH2 0xAA PUSH1 0x4 DUP1 CALLDATASIZE SUB DUP2 ADD SWAP1 PUSH2 0xA5 SWAP2 SWAP1 PUSH2 0x121E JUMP JUMPDEST PUSH2 0x29A JUMP JUMPDEST STOP JUMPDEST PUSH2 0xC6 PUSH1 0x4 DUP1 CALLDATASIZE SUB DUP2 ADD SWAP1 PUSH2 0xC1 SWAP2 SWAP1 PUSH2 0x121E JUMP JUMPDEST PUSH2 0x700 JUMP JUMPDEST PUSH1 0x40 MLOAD PUSH2 0xD8 SWAP7 SWAP6 SWAP5 SWAP4 SWAP3 SWAP2 SWAP1 PUSH2 0x133B JUMP JUMPDEST PUSH1 0x40 MLOAD DUP1 SWAP2 SUB SWAP1 RETURN JUMPDEST PUSH2 0xFB PUSH1 0x4 DUP1 CALLDATASIZE SUB DUP2 ADD SWAP1 PUSH2 0xF6 SWAP2 SWAP1 PUSH2 0x1512 JUMP JUMPDEST PUSH2 0xA58 JUMP JUMPDEST STOP JUMPDEST PUSH2 0x105 PUSH2 0xC66 JUMP JUMPDEST PUSH1 0x40 MLOAD PUSH2 0x112 SWAP2 SWAP1 PUSH2 0x17CD JUMP JUMPDEST PUSH1 0x40 MLOAD DUP1 SWAP2 SUB SWAP1 RETURN JUMPDEST PUSH1 0x1 DUP2 DUP2 SLOAD DUP2 LT PUSH2 0x12B JUMPI PUSH1 0x0 DUP1 REVERT JUMPDEST SWAP1 PUSH1 0x0 MSTORE PUSH1 0x20 PUSH1 0x0 KECCAK256 SWAP1 PUSH1 0x5 MUL ADD PUSH1 0x0 SWAP2 POP SWAP1 POP DUP1 PUSH1 0x0 ADD DUP1 SLOAD PUSH2 0x14E SWAP1 PUSH2 0x181E JUMP JUMPDEST DUP1 PUSH1 0x1F ADD PUSH1 0x20 DUP1 SWAP2 DIV MUL PUSH1 0x20 ADD PUSH1 0x40 MLOAD SWAP1 DUP2 ADD PUSH1 0x40 MSTORE DUP1 SWAP3 SWAP2 SWAP1 DUP2 DUP2 MSTORE PUSH1 0x20 ADD DUP3 DUP1 SLOAD PUSH2 0x17A SWAP1 PUSH2 0x181E JUMP JUMPDEST DUP1 ISZERO PUSH2 0x1C7 JUMPI DUP1 PUSH1 0x1F LT PUSH2 0x19C JUMPI PUSH2 0x100 DUP1 DUP4 SLOAD DIV MUL DUP4 MSTORE SWAP2 PUSH1 0x20 ADD SWAP2 PUSH2 0x1C7 JUMP JUMPDEST DUP3 ADD SWAP2 SWAP1 PUSH1 0x0 MSTORE PUSH1 0x20 PUSH1 0x0 KECCAK256 SWAP1 JUMPDEST DUP2 SLOAD DUP2 MSTORE SWAP1 PUSH1 0x1 ADD SWAP1 PUSH1 0x20 ADD DUP1 DUP4 GT PUSH2 0x1AA JUMPI DUP3 SWAP1 SUB PUSH1 0x1F AND DUP3 ADD SWAP2 JUMPDEST POP POP POP POP POP SWAP1 DUP1 PUSH1 0x1 ADD DUP1 SLOAD PUSH2 0x1DC SWAP1 PUSH2 0x181E JUMP JUMPDEST DUP1 PUSH1 0x1F ADD PUSH1 0x20 DUP1 SWAP2 DIV MUL PUSH1 0x20 ADD PUSH1 0x40 MLOAD SWAP1 DUP2 ADD PUSH1 0x40 MSTORE DUP1 SWAP3 SWAP2 SWAP1 DUP2 DUP2 MSTORE PUSH1 0x20 ADD DUP3 DUP1 SLOAD PUSH2 0x208 SWAP1 PUSH2 0x181E JUMP JUMPDEST DUP1 ISZERO PUSH2 0x255 JUMPI DUP1 PUSH1 0x1F LT PUSH2 0x22A JUMPI PUSH2 0x100 DUP1 DUP4 SLOAD DIV MUL DUP4 MSTORE SWAP2 PUSH1 0x20 ADD SWAP2 PUSH2 0x255 JUMP JUMPDEST DUP3 ADD SWAP2 SWAP1 PUSH1 0x0 MSTORE PUSH1 0x20 PUSH1 0x0 KECCAK256 SWAP1 JUMPDEST DUP2 SLOAD DUP2 MSTORE SWAP1 PUSH1 0x1 ADD SWAP1 PUSH1 0x20 ADD DUP1 DUP4 GT PUSH2 0x238 JUMPI DUP3 SWAP1 SUB PUSH1 0x1F AND DUP3 ADD SWAP2 JUMPDEST POP POP POP POP POP SWAP1 DUP1 PUSH1 0x2 ADD PUSH1 0x0 SWAP1 SLOAD SWAP1 PUSH2 0x100 EXP SWAP1 DIV PUSH2 0xFFFF AND SWAP1 DUP1 PUSH1 0x4 ADD PUSH1 0x0 SWAP1 SLOAD SWAP1 PUSH2 0x100 EXP SWAP1 DIV PUSH2 0xFFFF AND SWAP1 DUP1 PUSH1 0x4 ADD PUSH1 0x2 SWAP1 SLOAD SWAP1 PUSH2 0x100 EXP SWAP1 DIV PUSH1 0xFF AND SWAP1 POP DUP6 JUMP JUMPDEST PUSH1 0x0 PUSH20 0xFFFFFFFFFFFFFFFFFFFFFFFFFFFFFFFFFFFFFFFF AND CALLER PUSH20 0xFFFFFFFFFFFFFFFFFFFFFFFFFFFFFFFFFFFFFFFF AND SUB PUSH2 0x309 JUMPI PUSH1 0x40 MLOAD PUSH32 0x8C379A000000000000000000000000000000000000000000000000000000000 DUP2 MSTORE PUSH1 0x4 ADD PUSH2 0x300 SWAP1 PUSH2 0x189B JUMP JUMPDEST PUSH1 0x40 MLOAD DUP1 SWAP2 SUB SWAP1 REVERT JUMPDEST PUSH1 0x1 DUP1 SLOAD SWAP1 POP DUP2 PUSH1 0xFF AND LT PUSH2 0x353 JUMPI PUSH1 0x40 MLOAD PUSH32 0x8C379A000000000000000000000000000000000000000000000000000000000 DUP2 MSTORE PUSH1 0x4 ADD PUSH2 0x34A SWAP1 PUSH2 0x1907 JUMP JUMPDEST PUSH1 0x40 MLOAD DUP1 SWAP2 SUB SWAP1 REVERT JUMPDEST PUSH1 0x0 DUP1 CALLER PUSH20 0xFFFFFFFFFFFFFFFFFFFFFFFFFFFFFFFFFFFFFFFF AND PUSH20 0xFFFFFFFFFFFFFFFFFFFFFFFFFFFFFFFFFFFFFFFF AND DUP2 MSTORE PUSH1 0x20 ADD SWAP1 DUP2 MSTORE PUSH1 0x20 ADD PUSH1 0x0 KECCAK256 PUSH1 0x0 DUP3 PUSH1 0xFF AND PUSH1 0xFF AND DUP2 MSTORE PUSH1 0x20 ADD SWAP1 DUP2 MSTORE PUSH1 0x20 ADD PUSH1 0x0 KECCAK256 PUSH1 0x0 SWAP1 SLOAD SWAP1 PUSH2 0x100 EXP SWAP1 DIV PUSH1 0xFF AND ISZERO PUSH2 0x3F6 JUMPI PUSH1 0x40 MLOAD PUSH32 0x8C379A000000000000000000000000000000000000000000000000000000000 DUP2 MSTORE PUSH1 0x4 ADD PUSH2 0x3ED SWAP1 PUSH2 0x1973 JUMP JUMPDEST PUSH1 0x40 MLOAD DUP1 SWAP2 SUB SWAP1 REVERT JUMPDEST PUSH1 0x0 PUSH1 0x1 DUP3 PUSH1 0xFF AND DUP2 SLOAD DUP2 LT PUSH2 0x40F JUMPI PUSH2 0x40E PUSH2 0x1993 JUMP JUMPDEST JUMPDEST SWAP1 PUSH1 0x0 MSTORE PUSH1 0x20 PUSH1 0x0 KECCAK256 SWAP1 PUSH1 0x5 MUL ADD SWAP1 POP PUSH1 0x3 DUP1 DUP2 GT ISZERO PUSH2 0x432 JUMPI PUSH2 0x431 PUSH2 0x110D JUMP JUMPDEST JUMPDEST DUP2 PUSH1 0x4 ADD PUSH1 0x2 SWAP1 SLOAD SWAP1 PUSH2 0x100 EXP SWAP1 DIV PUSH1 0xFF AND PUSH1 0x3 DUP2 GT ISZERO PUSH2 0x456 JUMPI PUSH2 0x455 PUSH2 0x110D JUMP JUMPDEST JUMPDEST SUB PUSH2 0x496 JUMPI PUSH1 0x40 MLOAD PUSH32 0x8C379A000000000000000000000000000000000000000000000000000000000 DUP2 MSTORE PUSH1 0x4 ADD PUSH2 0x48D SWAP1 PUSH2 0x1A34 JUMP JUMPDEST PUSH1 0x40 MLOAD DUP1 SWAP2 SUB SWAP1 REVERT JUMPDEST PUSH1 0x1 DUP2 PUSH1 0x2 ADD PUSH1 0x0 DUP3 DUP3 DUP3 SWAP1 SLOAD SWAP1 PUSH2 0x100 EXP SWAP1 DIV PUSH2 0xFFFF AND PUSH2 0x4B8 SWAP2 SWAP1 PUSH2 0x1A83 JUMP JUMPDEST SWAP3 POP PUSH2 0x100 EXP DUP2 SLOAD DUP2 PUSH2 0xFFFF MUL NOT AND SWAP1 DUP4 PUSH2 0xFFFF AND MUL OR SWAP1 SSTORE POP DUP1 PUSH1 0x3 ADD CALLER SWAP1 DUP1 PUSH1 0x1 DUP2 SLOAD ADD DUP1 DUP3 SSTORE DUP1 SWAP2 POP POP PUSH1 0x1 SWAP1 SUB SWAP1 PUSH1 0x0 MSTORE PUSH1 0x20 PUSH1 0x0 KECCAK256 ADD PUSH1 0x0 SWAP1 SWAP2 SWAP1 SWAP2 SWAP1 SWAP2 PUSH2 0x100 EXP DUP2 SLOAD DUP2 PUSH20 0xFFFFFFFFFFFFFFFFFFFFFFFFFFFFFFFFFFFFFFFF MUL NOT AND SWAP1 DUP4 PUSH20 0xFFFFFFFFFFFFFFFFFFFFFFFFFFFFFFFFFFFFFFFF AND MUL OR SWAP1 SSTORE POP PUSH1 0x2 DUP2 PUSH1 0x4 ADD PUSH1 0x2 PUSH2 0x100 EXP DUP2 SLOAD DUP2 PUSH1 0xFF MUL NOT AND SWAP1 DUP4 PUSH1 0x3 DUP2 GT ISZERO PUSH2 0x55F JUMPI PUSH2 0x55E PUSH2 0x110D JUMP JUMPDEST JUMPDEST MUL OR SWAP1 SSTORE POP PUSH1 0x1 PUSH1 0x0 DUP1 CALLER PUSH20 0xFFFFFFFFFFFFFFFFFFFFFFFFFFFFFFFFFFFFFFFF AND PUSH20 0xFFFFFFFFFFFFFFFFFFFFFFFFFFFFFFFFFFFFFFFF AND DUP2 MSTORE PUSH1 0x20 ADD SWAP1 DUP2 MSTORE PUSH1 0x20 ADD PUSH1 0x0 KECCAK256 PUSH1 0x0 DUP5 PUSH1 0xFF AND PUSH1 0xFF AND DUP2 MSTORE PUSH1 0x20 ADD SWAP1 DUP2 MSTORE PUSH1 0x20 ADD PUSH1 0x0 KECCAK256 PUSH1 0x0 PUSH2 0x100 EXP DUP2 SLOAD DUP2 PUSH1 0xFF MUL NOT AND SWAP1 DUP4 ISZERO ISZERO MUL OR SWAP1 SSTORE POP DUP1 PUSH1 0x4 ADD PUSH1 0x0 SWAP1 SLOAD SWAP1 PUSH2 0x100 EXP SWAP1 DIV PUSH2 0xFFFF AND PUSH2 0xFFFF AND DUP2 PUSH1 0x2 ADD PUSH1 0x0 SWAP1 SLOAD SWAP1 PUSH2 0x100 EXP SWAP1 DIV PUSH2 0xFFFF AND PUSH2 0xFFFF AND LT PUSH2 0x699 JUMPI PUSH1 0x3 DUP2 PUSH1 0x4 ADD PUSH1 0x2 PUSH2 0x100 EXP DUP2 SLOAD DUP2 PUSH1 0xFF MUL NOT AND SWAP1 DUP4 PUSH1 0x3 DUP2 GT ISZERO PUSH2 0x62D JUMPI PUSH2 0x62C PUSH2 0x110D JUMP JUMPDEST JUMPDEST MUL OR SWAP1 SSTORE POP DUP1 PUSH1 0x0 ADD PUSH1 0x40 MLOAD PUSH2 0x643 SWAP2 SWAP1 PUSH2 0x1B5C JUMP JUMPDEST PUSH1 0x40 MLOAD DUP1 SWAP2 SUB SWAP1 KECCAK256 PUSH32 0x57EE8A914FF41F9DF2D7F3B88352952AB8F702BC31AB97FA3240D82460A9F354 DUP3 PUSH1 0x2 ADD PUSH1 0x0 SWAP1 SLOAD SWAP1 PUSH2 0x100 EXP SWAP1 DIV PUSH2 0xFFFF AND PUSH1 0x40 MLOAD PUSH2 0x68C SWAP2 SWAP1 PUSH2 0x1BAE JUMP JUMPDEST PUSH1 0x40 MLOAD DUP1 SWAP2 SUB SWAP1 LOG2 PUSH2 0x6FC JUMP JUMPDEST DUP1 PUSH1 0x0 ADD PUSH1 0x40 MLOAD PUSH2 0x6AA SWAP2 SWAP1 PUSH2 0x1B5C JUMP JUMPDEST PUSH1 0x40 MLOAD DUP1 SWAP2 SUB SWAP1 KECCAK256 PUSH32 0x21B4246139E955EF22CE210D80DAFA91CC534302377E7DD1E96AAE64694A4A9F DUP3 PUSH1 0x2 ADD PUSH1 0x0 SWAP1 SLOAD SWAP1 PUSH2 0x100 EXP SWAP1 DIV PUSH2 0xFFFF AND PUSH1 0x40 MLOAD PUSH2 0x6F3 SWAP2 SWAP1 PUSH2 0x1BAE JUMP JUMPDEST PUSH1 0x40 MLOAD DUP1 SWAP2 SUB SWAP1 LOG2 JUMPDEST POP POP JUMP JUMPDEST PUSH1 0x60 DUP1 PUSH1 0x0 PUSH1 0x60 PUSH1 0x0 DUP1 PUSH1 0x0 PUSH20 0xFFFFFFFFFFFFFFFFFFFFFFFFFFFFFFFFFFFFFFFF AND CALLER PUSH20 0xFFFFFFFFFFFFFFFFFFFFFFFFFFFFFFFFFFFFFFFF AND SUB PUSH2 0x779 JUMPI PUSH1 0x40 MLOAD PUSH32 0x8C379A000000000000000000000000000000000000000000000000000000000 DUP2 MSTORE PUSH1 0x4 ADD PUSH2 0x770 SWAP1 PUSH2 0x189B JUMP JUMPDEST PUSH1 0x40 MLOAD DUP1 SWAP2 SUB SWAP1 REVERT JUMPDEST PUSH1 0x1 DUP1 SLOAD SWAP1 POP DUP8 PUSH1 0xFF AND LT PUSH2 0x7C3 JUMPI PUSH1 0x40 MLOAD PUSH32 0x8C379A000000000000000000000000000000000000000000000000000000000 DUP2 MSTORE PUSH1 0x4 ADD PUSH2 0x7BA SWAP1 PUSH2 0x1C15 JUMP JUMPDEST PUSH1 0x40 MLOAD DUP1 SWAP2 SUB SWAP1 REVERT JUMPDEST PUSH1 0x0 PUSH1 0x1 DUP9 PUSH1 0xFF AND DUP2 SLOAD DUP2 LT PUSH2 0x7DC JUMPI PUSH2 0x7DB PUSH2 0x1993 JUMP JUMPDEST JUMPDEST SWAP1 PUSH1 0x0 MSTORE PUSH1 0x20 PUSH1 0x0 KECCAK256 SWAP1 PUSH1 0x5 MUL ADD PUSH1 0x40 MLOAD DUP1 PUSH1 0xC0 ADD PUSH1 0x40 MSTORE SWAP1 DUP2 PUSH1 0x0 DUP3 ADD DUP1 SLOAD PUSH2 0x805 SWAP1 PUSH2 0x181E JUMP JUMPDEST DUP1 PUSH1 0x1F ADD PUSH1 0x20 DUP1 SWAP2 DIV MUL PUSH1 0x20 ADD PUSH1 0x40 MLOAD SWAP1 DUP2 ADD PUSH1 0x40 MSTORE DUP1 SWAP3 SWAP2 SWAP1 DUP2 DUP2 MSTORE PUSH1 0x20 ADD DUP3 DUP1 SLOAD PUSH2 0x831 SWAP1 PUSH2 0x181E JUMP JUMPDEST DUP1 ISZERO PUSH2 0x87E JUMPI DUP1 PUSH1 0x1F LT PUSH2 0x853 JUMPI PUSH2 0x100 DUP1 DUP4 SLOAD DIV MUL DUP4 MSTORE SWAP2 PUSH1 0x20 ADD SWAP2 PUSH2 0x87E JUMP JUMPDEST DUP3 ADD SWAP2 SWAP1 PUSH1 0x0 MSTORE PUSH1 0x20 PUSH1 0x0 KECCAK256 SWAP1 JUMPDEST DUP2 SLOAD DUP2 MSTORE SWAP1 PUSH1 0x1 ADD SWAP1 PUSH1 0x20 ADD DUP1 DUP4 GT PUSH2 0x861 JUMPI DUP3 SWAP1 SUB PUSH1 0x1F AND DUP3 ADD SWAP2 JUMPDEST POP POP POP POP POP DUP2 MSTORE PUSH1 0x20 ADD PUSH1 0x1 DUP3 ADD DUP1 SLOAD PUSH2 0x897 SWAP1 PUSH2 0x181E JUMP JUMPDEST DUP1 PUSH1 0x1F ADD PUSH1 0x20 DUP1 SWAP2 DIV MUL PUSH1 0x20 ADD PUSH1 0x40 MLOAD SWAP1 DUP2 ADD PUSH1 0x40 MSTORE DUP1 SWAP3 SWAP2 SWAP1 DUP2 DUP2 MSTORE PUSH1 0x20 ADD DUP3 DUP1 SLOAD PUSH2 0x8C3 SWAP1 PUSH2 0x181E JUMP JUMPDEST DUP1 ISZERO PUSH2 0x910 JUMPI DUP1 PUSH1 0x1F LT PUSH2 0x8E5 JUMPI PUSH2 0x100 DUP1 DUP4 SLOAD DIV MUL DUP4 MSTORE SWAP2 PUSH1 0x20 ADD SWAP2 PUSH2 0x910 JUMP JUMPDEST DUP3 ADD SWAP2 SWAP1 PUSH1 0x0 MSTORE PUSH1 0x20 PUSH1 0x0 KECCAK256 SWAP1 JUMPDEST DUP2 SLOAD DUP2 MSTORE SWAP1 PUSH1 0x1 ADD SWAP1 PUSH1 0x20 ADD DUP1 DUP4 GT PUSH2 0x8F3 JUMPI DUP3 SWAP1 SUB PUSH1 0x1F AND DUP3 ADD SWAP2 JUMPDEST POP POP POP POP POP DUP2 MSTORE PUSH1 0x20 ADD PUSH1 0x2 DUP3 ADD PUSH1 0x0 SWAP1 SLOAD SWAP1 PUSH2 0x100 EXP SWAP1 DIV PUSH2 0xFFFF AND PUSH2 0xFFFF AND PUSH2 0xFFFF AND DUP2 MSTORE PUSH1 0x20 ADD PUSH1 0x3 DUP3 ADD DUP1 SLOAD DUP1 PUSH1 0x20 MUL PUSH1 0x20 ADD PUSH1 0x40 MLOAD SWAP1 DUP2 ADD PUSH1 0x40 MSTORE DUP1 SWAP3 SWAP2 SWAP1 DUP2 DUP2 MSTORE PUSH1 0x20 ADD DUP3 DUP1 SLOAD DUP1 ISZERO PUSH2 0x9BE JUMPI PUSH1 0x20 MUL DUP3 ADD SWAP2 SWAP1 PUSH1 0x0 MSTORE PUSH1 0x20 PUSH1 0x0 KECCAK256 SWAP1 JUMPDEST DUP2 PUSH1 0x0 SWAP1 SLOAD SWAP1 PUSH2 0x100 EXP SWAP1 DIV PUSH20 0xFFFFFFFFFFFFFFFFFFFFFFFFFFFFFFFFFFFFFFFF AND PUSH20 0xFFFFFFFFFFFFFFFFFFFFFFFFFFFFFFFFFFFFFFFF AND DUP2 MSTORE PUSH1 0x20 ADD SWAP1 PUSH1 0x1 ADD SWAP1 DUP1 DUP4 GT PUSH2 0x974 JUMPI JUMPDEST POP POP POP POP POP DUP2 MSTORE PUSH1 0x20 ADD PUSH1 0x4 DUP3 ADD PUSH1 0x0 SWAP1 SLOAD SWAP1 PUSH2 0x100 EXP SWAP1 DIV PUSH2 0xFFFF AND PUSH2 0xFFFF AND PUSH2 0xFFFF AND DUP2 MSTORE PUSH1 0x20 ADD PUSH1 0x4 DUP3 ADD PUSH1 0x2 SWAP1 SLOAD SWAP1 PUSH2 0x100 EXP SWAP1 DIV PUSH1 0xFF AND PUSH1 0x3 DUP2 GT ISZERO PUSH2 0xA0C JUMPI PUSH2 0xA0B PUSH2 0x110D JUMP JUMPDEST JUMPDEST PUSH1 0x3 DUP2 GT ISZERO PUSH2 0xA1E JUMPI PUSH2 0xA1D PUSH2 0x110D JUMP JUMPDEST JUMPDEST DUP2 MSTORE POP POP SWAP1 POP DUP1 PUSH1 0x0 ADD MLOAD SWAP7 POP DUP1 PUSH1 0x20 ADD MLOAD SWAP6 POP DUP1 PUSH1 0x40 ADD MLOAD SWAP5 POP DUP1 PUSH1 0x60 ADD MLOAD SWAP4 POP DUP1 PUSH1 0x80 ADD MLOAD SWAP3 POP DUP1 PUSH1 0xA0 ADD MLOAD SWAP2 POP POP SWAP2 SWAP4 SWAP6 POP SWAP2 SWAP4 SWAP6 JUMP JUMPDEST PUSH1 0x0 PUSH20 0xFFFFFFFFFFFFFFFFFFFFFFFFFFFFFFFFFFFFFFFF AND CALLER PUSH20 0xFFFFFFFFFFFFFFFFFFFFFFFFFFFFFFFFFFFFFFFF AND SUB PUSH2 0xAC7 JUMPI PUSH1 0x40 MLOAD PUSH32 0x8C379A000000000000000000000000000000000000000000000000000000000 DUP2 MSTORE PUSH1 0x4 ADD PUSH2 0xABE SWAP1 PUSH2 0x1C81 JUMP JUMPDEST PUSH1 0x40 MLOAD DUP1 SWAP2 SUB SWAP1 REVERT JUMPDEST PUSH2 0xACF PUSH2 0xEF2 JUMP JUMPDEST DUP4 DUP2 PUSH1 0x0 ADD DUP2 SWAP1 MSTORE POP DUP3 DUP2 PUSH1 0x20 ADD DUP2 SWAP1 MSTORE POP DUP2 DUP2 PUSH1 0x80 ADD SWAP1 PUSH2 0xFFFF AND SWAP1 DUP2 PUSH2 0xFFFF AND DUP2 MSTORE POP POP PUSH1 0x1 DUP2 PUSH1 0xA0 ADD SWAP1 PUSH1 0x3 DUP2 GT ISZERO PUSH2 0xB0E JUMPI PUSH2 0xB0D PUSH2 0x110D JUMP JUMPDEST JUMPDEST SWAP1 DUP2 PUSH1 0x3 DUP2 GT ISZERO PUSH2 0xB22 JUMPI PUSH2 0xB21 PUSH2 0x110D JUMP JUMPDEST JUMPDEST DUP2 MSTORE POP POP PUSH1 0x1 DUP2 SWAP1 DUP1 PUSH1 0x1 DUP2 SLOAD ADD DUP1 DUP3 SSTORE DUP1 SWAP2 POP POP PUSH1 0x1 SWAP1 SUB SWAP1 PUSH1 0x0 MSTORE PUSH1 0x20 PUSH1 0x0 KECCAK256 SWAP1 PUSH1 0x5 MUL ADD PUSH1 0x0 SWAP1 SWAP2 SWAP1 SWAP2 SWAP1 SWAP2 POP PUSH1 0x0 DUP3 ADD MLOAD DUP2 PUSH1 0x0 ADD SWAP1 DUP2 PUSH2 0xB67 SWAP2 SWAP1 PUSH2 0x1E2E JUMP JUMPDEST POP PUSH1 0x20 DUP3 ADD MLOAD DUP2 PUSH1 0x1 ADD SWAP1 DUP2 PUSH2 0xB7D SWAP2 SWAP1 PUSH2 0x1E2E JUMP JUMPDEST POP PUSH1 0x40 DUP3 ADD MLOAD DUP2 PUSH1 0x2 ADD PUSH1 0x0 PUSH2 0x100 EXP DUP2 SLOAD DUP2 PUSH2 0xFFFF MUL NOT AND SWAP1 DUP4 PUSH2 0xFFFF AND MUL OR SWAP1 SSTORE POP PUSH1 0x60 DUP3 ADD MLOAD DUP2 PUSH1 0x3 ADD SWAP1 DUP1 MLOAD SWAP1 PUSH1 0x20 ADD SWAP1 PUSH2 0xBBD SWAP3 SWAP2 SWAP1 PUSH2 0xF42 JUMP JUMPDEST POP PUSH1 0x80 DUP3 ADD MLOAD DUP2 PUSH1 0x4 ADD PUSH1 0x0 PUSH2 0x100 EXP DUP2 SLOAD DUP2 PUSH2 0xFFFF MUL NOT AND SWAP1 DUP4 PUSH2 0xFFFF AND MUL OR SWAP1 SSTORE POP PUSH1 0xA0 DUP3 ADD MLOAD DUP2 PUSH1 0x4 ADD PUSH1 0x2 PUSH2 0x100 EXP DUP2 SLOAD DUP2 PUSH1 0xFF MUL NOT AND SWAP1 DUP4 PUSH1 0x3 DUP2 GT ISZERO PUSH2 0xC0C JUMPI PUSH2 0xC0B PUSH2 0x110D JUMP JUMPDEST JUMPDEST MUL OR SWAP1 SSTORE POP POP POP DUP4 PUSH1 0x40 MLOAD PUSH2 0xC21 SWAP2 SWAP1 PUSH2 0x1F31 JUMP JUMPDEST PUSH1 0x40 MLOAD DUP1 SWAP2 SUB SWAP1 KECCAK256 PUSH32 0xD676BD5A867D12796D6EF62A604D07C83BDCE30AAF9471431D7772E1BA09E222 DUP4 PUSH1 0x40 MLOAD PUSH2 0xC58 SWAP2 SWAP1 PUSH2 0x1F48 JUMP JUMPDEST PUSH1 0x40 MLOAD DUP1 SWAP2 SUB SWAP1 LOG2 POP POP POP POP JUMP JUMPDEST PUSH1 0x60 PUSH1 0x1 DUP1 SLOAD DUP1 PUSH1 0x20 MUL PUSH1 0x20 ADD PUSH1 0x40 MLOAD SWAP1 DUP2 ADD PUSH1 0x40 MSTORE DUP1 SWAP3 SWAP2 SWAP1 DUP2 DUP2 MSTORE PUSH1 0x20 ADD PUSH1 0x0 SWAP1 JUMPDEST DUP3 DUP3 LT ISZERO PUSH2 0xEE9 JUMPI DUP4 DUP3 SWAP1 PUSH1 0x0 MSTORE PUSH1 0x20 PUSH1 0x0 KECCAK256 SWAP1 PUSH1 0x5 MUL ADD PUSH1 0x40 MLOAD DUP1 PUSH1 0xC0 ADD PUSH1 0x40 MSTORE SWAP1 DUP2 PUSH1 0x0 DUP3 ADD DUP1 SLOAD PUSH2 0xCBD SWAP1 PUSH2 0x181E JUMP JUMPDEST DUP1 PUSH1 0x1F ADD PUSH1 0x20 DUP1 SWAP2 DIV MUL PUSH1 0x20 ADD PUSH1 0x40 MLOAD SWAP1 DUP2 ADD PUSH1 0x40 MSTORE DUP1 SWAP3 SWAP2 SWAP1 DUP2 DUP2 MSTORE PUSH1 0x20 ADD DUP3 DUP1 SLOAD PUSH2 0xCE9 SWAP1 PUSH2 0x181E JUMP JUMPDEST DUP1 ISZERO PUSH2 0xD36 JUMPI DUP1 PUSH1 0x1F LT PUSH2 0xD0B JUMPI PUSH2 0x100 DUP1 DUP4 SLOAD DIV MUL DUP4 MSTORE SWAP2 PUSH1 0x20 ADD SWAP2 PUSH2 0xD36 JUMP JUMPDEST DUP3 ADD SWAP2 SWAP1 PUSH1 0x0 MSTORE PUSH1 0x20 PUSH1 0x0 KECCAK256 SWAP1 JUMPDEST DUP2 SLOAD DUP2 MSTORE SWAP1 PUSH1 0x1 ADD SWAP1 PUSH1 0x20 ADD DUP1 DUP4 GT PUSH2 0xD19 JUMPI DUP3 SWAP1 SUB PUSH1 0x1F AND DUP3 ADD SWAP2 JUMPDEST POP POP POP POP POP DUP2 MSTORE PUSH1 0x20 ADD PUSH1 0x1 DUP3 ADD DUP1 SLOAD PUSH2 0xD4F SWAP1 PUSH2 0x181E JUMP JUMPDEST DUP1 PUSH1 0x1F ADD PUSH1 0x20 DUP1 SWAP2 DIV MUL PUSH1 0x20 ADD PUSH1 0x40 MLOAD SWAP1 DUP2 ADD PUSH1 0x40 MSTORE DUP1 SWAP3 SWAP2 SWAP1 DUP2 DUP2 MSTORE PUSH1 0x20 ADD DUP3 DUP1 SLOAD PUSH2 0xD7B SWAP1 PUSH2 0x181E JUMP JUMPDEST DUP1 ISZERO PUSH2 0xDC8 JUMPI DUP1 PUSH1 0x1F LT PUSH2 0xD9D JUMPI PUSH2 0x100 DUP1 DUP4 SLOAD DIV MUL DUP4 MSTORE SWAP2 PUSH1 0x20 ADD SWAP2 PUSH2 0xDC8 JUMP JUMPDEST DUP3 ADD SWAP2 SWAP1 PUSH1 0x0 MSTORE PUSH1 0x20 PUSH1 0x0 KECCAK256 SWAP1 JUMPDEST DUP2 SLOAD DUP2 MSTORE SWAP1 PUSH1 0x1 ADD SWAP1 PUSH1 0x20 ADD DUP1 DUP4 GT PUSH2 0xDAB JUMPI DUP3 SWAP1 SUB PUSH1 0x1F AND DUP3 ADD SWAP2 JUMPDEST POP POP POP POP POP DUP2 MSTORE PUSH1 0x20 ADD PUSH1 0x2 DUP3 ADD PUSH1 0x0 SWAP1 SLOAD SWAP1 PUSH2 0x100 EXP SWAP1 DIV PUSH2 0xFFFF AND PUSH2 0xFFFF AND PUSH2 0xFFFF AND DUP2 MSTORE PUSH1 0x20 ADD PUSH1 0x3 DUP3 ADD DUP1 SLOAD DUP1 PUSH1 0x20 MUL PUSH1 0x20 ADD PUSH1 0x40 MLOAD SWAP1 DUP2 ADD PUSH1 0x40 MSTORE DUP1 SWAP3 SWAP2 SWAP1 DUP2 DUP2 MSTORE PUSH1 0x20 ADD DUP3 DUP1 SLOAD DUP1 ISZERO PUSH2 0xE76 JUMPI PUSH1 0x20 MUL DUP3 ADD SWAP2 SWAP1 PUSH1 0x0 MSTORE PUSH1 0x20 PUSH1 0x0 KECCAK256 SWAP1 JUMPDEST DUP2 PUSH1 0x0 SWAP1 SLOAD SWAP1 PUSH2 0x100 EXP SWAP1 DIV PUSH20 0xFFFFFFFFFFFFFFFFFFFFFFFFFFFFFFFFFFFFFFFF AND PUSH20 0xFFFFFFFFFFFFFFFFFFFFFFFFFFFFFFFFFFFFFFFF AND DUP2 MSTORE PUSH1 0x20 ADD SWAP1 PUSH1 0x1 ADD SWAP1 DUP1 DUP4 GT PUSH2 0xE2C JUMPI JUMPDEST POP POP POP POP POP DUP2 MSTORE PUSH1 0x20 ADD PUSH1 0x4 DUP3 ADD PUSH1 0x0 SWAP1 SLOAD SWAP1 PUSH2 0x100 EXP SWAP1 DIV PUSH2 0xFFFF AND PUSH2 0xFFFF AND PUSH2 0xFFFF AND DUP2 MSTORE PUSH1 0x20 ADD PUSH1 0x4 DUP3 ADD PUSH1 0x2 SWAP1 SLOAD SWAP1 PUSH2 0x100 EXP SWAP1 DIV PUSH1 0xFF AND PUSH1 0x3 DUP2 GT ISZERO PUSH2 0xEC4 JUMPI PUSH2 0xEC3 PUSH2 0x110D JUMP JUMPDEST JUMPDEST PUSH1 0x3 DUP2 GT ISZERO PUSH2 0xED6 JUMPI PUSH2 0xED5 PUSH2 0x110D JUMP JUMPDEST JUMPDEST DUP2 MSTORE POP POP DUP2 MSTORE PUSH1 0x20 ADD SWAP1 PUSH1 0x1 ADD SWAP1 PUSH2 0xC8A JUMP JUMPDEST POP POP POP POP SWAP1 POP SWAP1 JUMP JUMPDEST PUSH1 0x40 MLOAD DUP1 PUSH1 0xC0 ADD PUSH1 0x40 MSTORE DUP1 PUSH1 0x60 DUP2 MSTORE PUSH1 0x20 ADD PUSH1 0x60 DUP2 MSTORE PUSH1 0x20 ADD PUSH1 0x0 PUSH2 0xFFFF AND DUP2 MSTORE PUSH1 0x20 ADD PUSH1 0x60 DUP2 MSTORE PUSH1 0x20 ADD PUSH1 0x0 PUSH2 0xFFFF AND DUP2 MSTORE PUSH1 0x20 ADD PUSH1 0x0 PUSH1 0x3 DUP2 GT ISZERO PUSH2 0xF3C JUMPI PUSH2 0xF3B PUSH2 0x110D JUMP JUMPDEST JUMPDEST DUP2 MSTORE POP SWAP1 JUMP JUMPDEST DUP3 DUP1 SLOAD DUP3 DUP3 SSTORE SWAP1 PUSH1 0x0 MSTORE PUSH1 0x20 PUSH1 0x0 KECCAK256 SWAP1 DUP2 ADD SWAP3 DUP3 ISZERO PUSH2 0xFBB JUMPI SWAP2 PUSH1 0x20 MUL DUP3 ADD JUMPDEST DUP3 DUP2 GT ISZERO PUSH2 0xFBA JUMPI DUP3 MLOAD DUP3 PUSH1 0x0 PUSH2 0x100 EXP DUP2 SLOAD DUP2 PUSH20 0xFFFFFFFFFFFFFFFFFFFFFFFFFFFFFFFFFFFFFFFF MUL NOT AND SWAP1 DUP4 PUSH20 0xFFFFFFFFFFFFFFFFFFFFFFFFFFFFFFFFFFFFFFFF AND MUL OR SWAP1 SSTORE POP SWAP2 PUSH1 0x20 ADD SWAP2 SWAP1 PUSH1 0x1 ADD SWAP1 PUSH2 0xF62 JUMP JUMPDEST JUMPDEST POP SWAP1 POP PUSH2 0xFC8 SWAP2 SWAP1 PUSH2 0xFCC JUMP JUMPDEST POP SWAP1 JUMP JUMPDEST JUMPDEST DUP1 DUP3 GT ISZERO PUSH2 0xFE5 JUMPI PUSH1 0x0 DUP2 PUSH1 0x0 SWAP1 SSTORE POP PUSH1 0x1 ADD PUSH2 0xFCD JUMP JUMPDEST POP SWAP1 JUMP JUMPDEST PUSH1 0x0 PUSH1 0x40 MLOAD SWAP1 POP SWAP1 JUMP JUMPDEST PUSH1 0x0 DUP1 REVERT JUMPDEST PUSH1 0x0 DUP1 REVERT JUMPDEST PUSH1 0x0 DUP2 SWAP1 POP SWAP2 SWAP1 POP JUMP JUMPDEST PUSH2 0x1010 DUP2 PUSH2 0xFFD JUMP JUMPDEST DUP2 EQ PUSH2 0x101B JUMPI PUSH1 0x0 DUP1 REVERT JUMPDEST POP JUMP JUMPDEST PUSH1 0x0 DUP2 CALLDATALOAD SWAP1 POP PUSH2 0x102D DUP2 PUSH2 0x1007 JUMP JUMPDEST SWAP3 SWAP2 POP POP JUMP JUMPDEST PUSH1 0x0 PUSH1 0x20 DUP3 DUP5 SUB SLT ISZERO PUSH2 0x1049 JUMPI PUSH2 0x1048 PUSH2 0xFF3 JUMP JUMPDEST JUMPDEST PUSH1 0x0 PUSH2 0x1057 DUP5 DUP3 DUP6 ADD PUSH2 0x101E JUMP JUMPDEST SWAP2 POP POP SWAP3 SWAP2 POP POP JUMP JUMPDEST PUSH1 0x0 DUP2 MLOAD SWAP1 POP SWAP2 SWAP1 POP JUMP JUMPDEST PUSH1 0x0 DUP3 DUP3 MSTORE PUSH1 0x20 DUP3 ADD SWAP1 POP SWAP3 SWAP2 POP POP JUMP JUMPDEST PUSH1 0x0 JUMPDEST DUP4 DUP2 LT ISZERO PUSH2 0x109A JUMPI DUP1 DUP3 ADD MLOAD DUP2 DUP5 ADD MSTORE PUSH1 0x20 DUP2 ADD SWAP1 POP PUSH2 0x107F JUMP JUMPDEST PUSH1 0x0 DUP5 DUP5 ADD MSTORE POP POP POP POP JUMP JUMPDEST PUSH1 0x0 PUSH1 0x1F NOT PUSH1 0x1F DUP4 ADD AND SWAP1 POP SWAP2 SWAP1 POP JUMP JUMPDEST PUSH1 0x0 PUSH2 0x10C2 DUP3 PUSH2 0x1060 JUMP JUMPDEST PUSH2 0x10CC DUP2 DUP6 PUSH2 0x106B JUMP JUMPDEST SWAP4 POP PUSH2 0x10DC DUP2 DUP6 PUSH1 0x20 DUP7 ADD PUSH2 0x107C JUMP JUMPDEST PUSH2 0x10E5 DUP2 PUSH2 0x10A6 JUMP JUMPDEST DUP5 ADD SWAP2 POP POP SWAP3 SWAP2 POP POP JUMP JUMPDEST PUSH1 0x0 PUSH2 0xFFFF DUP3 AND SWAP1 POP SWAP2 SWAP1 POP JUMP JUMPDEST PUSH2 0x1107 DUP2 PUSH2 0x10F0 JUMP JUMPDEST DUP3 MSTORE POP POP JUMP JUMPDEST PUSH32 0x4E487B7100000000000000000000000000000000000000000000000000000000 PUSH1 0x0 MSTORE PUSH1 0x21 PUSH1 0x4 MSTORE PUSH1 0x24 PUSH1 0x0 REVERT JUMPDEST PUSH1 0x4 DUP2 LT PUSH2 0x114D JUMPI PUSH2 0x114C PUSH2 0x110D JUMP JUMPDEST JUMPDEST POP JUMP JUMPDEST PUSH1 0x0 DUP2 SWAP1 POP PUSH2 0x115E DUP3 PUSH2 0x113C JUMP JUMPDEST SWAP2 SWAP1 POP JUMP JUMPDEST PUSH1 0x0 PUSH2 0x116E DUP3 PUSH2 0x1150 JUMP JUMPDEST SWAP1 POP SWAP2 SWAP1 POP JUMP JUMPDEST PUSH2 0x117E DUP2 PUSH2 0x1163 JUMP JUMPDEST DUP3 MSTORE POP POP JUMP JUMPDEST PUSH1 0x0 PUSH1 0xA0 DUP3 ADD SWAP1 POP DUP2 DUP2 SUB PUSH1 0x0 DUP4 ADD MSTORE PUSH2 0x119E DUP2 DUP9 PUSH2 0x10B7 JUMP JUMPDEST SWAP1 POP DUP2 DUP2 SUB PUSH1 0x20 DUP4 ADD MSTORE PUSH2 0x11B2 DUP2 DUP8 PUSH2 0x10B7 JUMP JUMPDEST SWAP1 POP PUSH2 0x11C1 PUSH1 0x40 DUP4 ADD DUP7 PUSH2 0x10FE JUMP JUMPDEST PUSH2 0x11CE PUSH1 0x60 DUP4 ADD DUP6 PUSH2 0x10FE JUMP JUMPDEST PUSH2 0x11DB PUSH1 0x80 DUP4 ADD DUP5 PUSH2 0x1175 JUMP JUMPDEST SWAP7 SWAP6 POP POP POP POP POP POP JUMP JUMPDEST PUSH1 0x0 PUSH1 0xFF DUP3 AND SWAP1 POP SWAP2 SWAP1 POP JUMP JUMPDEST PUSH2 0x11FB DUP2 PUSH2 0x11E5 JUMP JUMPDEST DUP2 EQ PUSH2 0x1206 JUMPI PUSH1 0x0 DUP1 REVERT JUMPDEST POP JUMP JUMPDEST PUSH1 0x0 DUP2 CALLDATALOAD SWAP1 POP PUSH2 0x1218 DUP2 PUSH2 0x11F2 JUMP JUMPDEST SWAP3 SWAP2 POP POP JUMP JUMPDEST PUSH1 0x0 PUSH1 0x20 DUP3 DUP5 SUB SLT ISZERO PUSH2 0x1234 JUMPI PUSH2 0x1233 PUSH2 0xFF3 JUMP JUMPDEST JUMPDEST PUSH1 0x0 PUSH2 0x1242 DUP5 DUP3 DUP6 ADD PUSH2 0x1209 JUMP JUMPDEST SWAP2 POP POP SWAP3 SWAP2 POP POP JUMP JUMPDEST PUSH1 0x0 DUP2 MLOAD SWAP1 POP SWAP2 SWAP1 POP JUMP JUMPDEST PUSH1 0x0 DUP3 DUP3 MSTORE PUSH1 0x20 DUP3 ADD SWAP1 POP SWAP3 SWAP2 POP POP JUMP JUMPDEST PUSH1 0x0 DUP2 SWAP1 POP PUSH1 0x20 DUP3 ADD SWAP1 POP SWAP2 SWAP1 POP JUMP JUMPDEST PUSH1 0x0 PUSH20 0xFFFFFFFFFFFFFFFFFFFFFFFFFFFFFFFFFFFFFFFF DUP3 AND SWAP1 POP SWAP2 SWAP1 POP JUMP JUMPDEST PUSH1 0x0 PUSH2 0x12A2 DUP3 PUSH2 0x1277 JUMP JUMPDEST SWAP1 POP SWAP2 SWAP1 POP JUMP JUMPDEST PUSH2 0x12B2 DUP2 PUSH2 0x1297 JUMP JUMPDEST DUP3 MSTORE POP POP JUMP JUMPDEST PUSH1 0x0 PUSH2 0x12C4 DUP4 DUP4 PUSH2 0x12A9 JUMP JUMPDEST PUSH1 0x20 DUP4 ADD SWAP1 POP SWAP3 SWAP2 POP POP JUMP JUMPDEST PUSH1 0x0 PUSH1 0x20 DUP3 ADD SWAP1 POP SWAP2 SWAP1 POP JUMP JUMPDEST PUSH1 0x0 PUSH2 0x12E8 DUP3 PUSH2 0x124B JUMP JUMPDEST PUSH2 0x12F2 DUP2 DUP6 PUSH2 0x1256 JUMP JUMPDEST SWAP4 POP PUSH2 0x12FD DUP4 PUSH2 0x1267 JUMP JUMPDEST DUP1 PUSH1 0x0 JUMPDEST DUP4 DUP2 LT ISZERO PUSH2 0x132E JUMPI DUP2 MLOAD PUSH2 0x1315 DUP9 DUP3 PUSH2 0x12B8 JUMP JUMPDEST SWAP8 POP PUSH2 0x1320 DUP4 PUSH2 0x12D0 JUMP JUMPDEST SWAP3 POP POP PUSH1 0x1 DUP2 ADD SWAP1 POP PUSH2 0x1301 JUMP JUMPDEST POP DUP6 SWAP4 POP POP POP POP SWAP3 SWAP2 POP POP JUMP JUMPDEST PUSH1 0x0 PUSH1 0xC0 DUP3 ADD SWAP1 POP DUP2 DUP2 SUB PUSH1 0x0 DUP4 ADD MSTORE PUSH2 0x1355 DUP2 DUP10 PUSH2 0x10B7 JUMP JUMPDEST SWAP1 POP DUP2 DUP2 SUB PUSH1 0x20 DUP4 ADD MSTORE PUSH2 0x1369 DUP2 DUP9 PUSH2 0x10B7 JUMP JUMPDEST SWAP1 POP PUSH2 0x1378 PUSH1 0x40 DUP4 ADD DUP8 PUSH2 0x10FE JUMP JUMPDEST DUP2 DUP2 SUB PUSH1 0x60 DUP4 ADD MSTORE PUSH2 0x138A DUP2 DUP7 PUSH2 0x12DD JUMP JUMPDEST SWAP1 POP PUSH2 0x1399 PUSH1 0x80 DUP4 ADD DUP6 PUSH2 0x10FE JUMP JUMPDEST PUSH2 0x13A6 PUSH1 0xA0 DUP4 ADD DUP5 PUSH2 0x1175 JUMP JUMPDEST SWAP8 SWAP7 POP POP POP POP POP POP POP JUMP JUMPDEST PUSH1 0x0 DUP1 REVERT JUMPDEST PUSH1 0x0 DUP1 REVERT JUMPDEST PUSH32 0x4E487B7100000000000000000000000000000000000000000000000000000000 PUSH1 0x0 MSTORE PUSH1 0x41 PUSH1 0x4 MSTORE PUSH1 0x24 PUSH1 0x0 REVERT JUMPDEST PUSH2 0x13F3 DUP3 PUSH2 0x10A6 JUMP JUMPDEST DUP2 ADD DUP2 DUP2 LT PUSH8 0xFFFFFFFFFFFFFFFF DUP3 GT OR ISZERO PUSH2 0x1412 JUMPI PUSH2 0x1411 PUSH2 0x13BB JUMP JUMPDEST JUMPDEST DUP1 PUSH1 0x40 MSTORE POP POP POP JUMP JUMPDEST PUSH1 0x0 PUSH2 0x1425 PUSH2 0xFE9 JUMP JUMPDEST SWAP1 POP PUSH2 0x1431 DUP3 DUP3 PUSH2 0x13EA JUMP JUMPDEST SWAP2 SWAP1 POP JUMP JUMPDEST PUSH1 0x0 PUSH8 0xFFFFFFFFFFFFFFFF DUP3 GT ISZERO PUSH2 0x1451 JUMPI PUSH2 0x1450 PUSH2 0x13BB JUMP JUMPDEST JUMPDEST PUSH2 0x145A DUP3 PUSH2 0x10A6 JUMP JUMPDEST SWAP1 POP PUSH1 0x20 DUP2 ADD SWAP1 POP SWAP2 SWAP1 POP JUMP JUMPDEST DUP3 DUP2 DUP4 CALLDATACOPY PUSH1 0x0 DUP4 DUP4 ADD MSTORE POP POP POP JUMP JUMPDEST PUSH1 0x0 PUSH2 0x1489 PUSH2 0x1484 DUP5 PUSH2 0x1436 JUMP JUMPDEST PUSH2 0x141B JUMP JUMPDEST SWAP1 POP DUP3 DUP2 MSTORE PUSH1 0x20 DUP2 ADD DUP5 DUP5 DUP5 ADD GT ISZERO PUSH2 0x14A5 JUMPI PUSH2 0x14A4 PUSH2 0x13B6 JUMP JUMPDEST JUMPDEST PUSH2 0x14B0 DUP5 DUP3 DUP6 PUSH2 0x1467 JUMP JUMPDEST POP SWAP4 SWAP3 POP POP POP JUMP JUMPDEST PUSH1 0x0 DUP3 PUSH1 0x1F DUP4 ADD SLT PUSH2 0x14CD JUMPI PUSH2 0x14CC PUSH2 0x13B1 JUMP JUMPDEST JUMPDEST DUP2 CALLDATALOAD PUSH2 0x14DD DUP5 DUP3 PUSH1 0x20 DUP7 ADD PUSH2 0x1476 JUMP JUMPDEST SWAP2 POP POP SWAP3 SWAP2 POP POP JUMP JUMPDEST PUSH2 0x14EF DUP2 PUSH2 0x10F0 JUMP JUMPDEST DUP2 EQ PUSH2 0x14FA JUMPI PUSH1 0x0 DUP1 REVERT JUMPDEST POP JUMP JUMPDEST PUSH1 0x0 DUP2 CALLDATALOAD SWAP1 POP PUSH2 0x150C DUP2 PUSH2 0x14E6 JUMP JUMPDEST SWAP3 SWAP2 POP POP JUMP JUMPDEST PUSH1 0x0 DUP1 PUSH1 0x0 PUSH1 0x60 DUP5 DUP7 SUB SLT ISZERO PUSH2 0x152B JUMPI PUSH2 0x152A PUSH2 0xFF3 JUMP JUMPDEST JUMPDEST PUSH1 0x0 DUP5 ADD CALLDATALOAD PUSH8 0xFFFFFFFFFFFFFFFF DUP2 GT ISZERO PUSH2 0x1549 JUMPI PUSH2 0x1548 PUSH2 0xFF8 JUMP JUMPDEST JUMPDEST PUSH2 0x1555 DUP7 DUP3 DUP8 ADD PUSH2 0x14B8 JUMP JUMPDEST SWAP4 POP POP PUSH1 0x20 DUP5 ADD CALLDATALOAD PUSH8 0xFFFFFFFFFFFFFFFF DUP2 GT ISZERO PUSH2 0x1576 JUMPI PUSH2 0x1575 PUSH2 0xFF8 JUMP JUMPDEST JUMPDEST PUSH2 0x1582 DUP7 DUP3 DUP8 ADD PUSH2 0x14B8 JUMP JUMPDEST SWAP3 POP POP PUSH1 0x40 PUSH2 0x1593 DUP7 DUP3 DUP8 ADD PUSH2 0x14FD JUMP JUMPDEST SWAP2 POP POP SWAP3 POP SWAP3 POP SWAP3 JUMP JUMPDEST PUSH1 0x0 DUP2 MLOAD SWAP1 POP SWAP2 SWAP1 POP JUMP JUMPDEST PUSH1 0x0 DUP3 DUP3 MSTORE PUSH1 0x20 DUP3 ADD SWAP1 POP SWAP3 SWAP2 POP POP JUMP JUMPDEST PUSH1 0x0 DUP2 SWAP1 POP PUSH1 0x20 DUP3 ADD SWAP1 POP SWAP2 SWAP1 POP JUMP JUMPDEST PUSH1 0x0 DUP3 DUP3 MSTORE PUSH1 0x20 DUP3 ADD SWAP1 POP SWAP3 SWAP2 POP POP JUMP JUMPDEST PUSH1 0x0 PUSH2 0x15E5 DUP3 PUSH2 0x1060 JUMP JUMPDEST PUSH2 0x15EF DUP2 DUP6 PUSH2 0x15C9 JUMP JUMPDEST SWAP4 POP PUSH2 0x15FF DUP2 DUP6 PUSH1 0x20 DUP7 ADD PUSH2 0x107C JUMP JUMPDEST PUSH2 0x1608 DUP2 PUSH2 0x10A6 JUMP JUMPDEST DUP5 ADD SWAP2 POP POP SWAP3 SWAP2 POP POP JUMP JUMPDEST PUSH2 0x161C DUP2 PUSH2 0x10F0 JUMP JUMPDEST DUP3 MSTORE POP POP JUMP JUMPDEST PUSH1 0x0 DUP3 DUP3 MSTORE PUSH1 0x20 DUP3 ADD SWAP1 POP SWAP3 SWAP2 POP POP JUMP JUMPDEST PUSH1 0x0 PUSH2 0x163E DUP3 PUSH2 0x124B JUMP JUMPDEST PUSH2 0x1648 DUP2 DUP6 PUSH2 0x1622 JUMP JUMPDEST SWAP4 POP PUSH2 0x1653 DUP4 PUSH2 0x1267 JUMP JUMPDEST DUP1 PUSH1 0x0 JUMPDEST DUP4 DUP2 LT ISZERO PUSH2 0x1684 JUMPI DUP2 MLOAD PUSH2 0x166B DUP9 DUP3 PUSH2 0x12B8 JUMP JUMPDEST SWAP8 POP PUSH2 0x1676 DUP4 PUSH2 0x12D0 JUMP JUMPDEST SWAP3 POP POP PUSH1 0x1 DUP2 ADD SWAP1 POP PUSH2 0x1657 JUMP JUMPDEST POP DUP6 SWAP4 POP POP POP POP SWAP3 SWAP2 POP POP JUMP JUMPDEST PUSH2 0x169A DUP2 PUSH2 0x1163 JUMP JUMPDEST DUP3 MSTORE POP POP JUMP JUMPDEST PUSH1 0x0 PUSH1 0xC0 DUP4 ADD PUSH1 0x0 DUP4 ADD MLOAD DUP5 DUP3 SUB PUSH1 0x0 DUP7 ADD MSTORE PUSH2 0x16BD DUP3 DUP3 PUSH2 0x15DA JUMP JUMPDEST SWAP2 POP POP PUSH1 0x20 DUP4 ADD MLOAD DUP5 DUP3 SUB PUSH1 0x20 DUP7 ADD MSTORE PUSH2 0x16D7 DUP3 DUP3 PUSH2 0x15DA JUMP JUMPDEST SWAP2 POP POP PUSH1 0x40 DUP4 ADD MLOAD PUSH2 0x16EC PUSH1 0x40 DUP7 ADD DUP3 PUSH2 0x1613 JUMP JUMPDEST POP PUSH1 0x60 DUP4 ADD MLOAD DUP5 DUP3 SUB PUSH1 0x60 DUP7 ADD MSTORE PUSH2 0x1704 DUP3 DUP3 PUSH2 0x1633 JUMP JUMPDEST SWAP2 POP POP PUSH1 0x80 DUP4 ADD MLOAD PUSH2 0x1719 PUSH1 0x80 DUP7 ADD DUP3 PUSH2 0x1613 JUMP JUMPDEST POP PUSH1 0xA0 DUP4 ADD MLOAD PUSH2 0x172C PUSH1 0xA0 DUP7 ADD DUP3 PUSH2 0x1691 JUMP JUMPDEST POP DUP1 SWAP2 POP POP SWAP3 SWAP2 POP POP JUMP JUMPDEST PUSH1 0x0 PUSH2 0x1743 DUP4 DUP4 PUSH2 0x16A0 JUMP JUMPDEST SWAP1 POP SWAP3 SWAP2 POP POP JUMP JUMPDEST PUSH1 0x0 PUSH1 0x20 DUP3 ADD SWAP1 POP SWAP2 SWAP1 POP JUMP JUMPDEST PUSH1 0x0 PUSH2 0x1763 DUP3 PUSH2 0x159D JUMP JUMPDEST PUSH2 0x176D DUP2 DUP6 PUSH2 0x15A8 JUMP JUMPDEST SWAP4 POP DUP4 PUSH1 0x20 DUP3 MUL DUP6 ADD PUSH2 0x177F DUP6 PUSH2 0x15B9 JUMP JUMPDEST DUP1 PUSH1 0x0 JUMPDEST DUP6 DUP2 LT ISZERO PUSH2 0x17BB JUMPI DUP5 DUP5 SUB DUP10 MSTORE DUP2 MLOAD PUSH2 0x179C DUP6 DUP3 PUSH2 0x1737 JUMP JUMPDEST SWAP5 POP PUSH2 0x17A7 DUP4 PUSH2 0x174B JUMP JUMPDEST SWAP3 POP PUSH1 0x20 DUP11 ADD SWAP10 POP POP PUSH1 0x1 DUP2 ADD SWAP1 POP PUSH2 0x1783 JUMP JUMPDEST POP DUP3 SWAP8 POP DUP8 SWAP6 POP POP POP POP POP POP SWAP3 SWAP2 POP POP JUMP JUMPDEST PUSH1 0x0 PUSH1 0x20 DUP3 ADD SWAP1 POP DUP2 DUP2 SUB PUSH1 0x0 DUP4 ADD MSTORE PUSH2 0x17E7 DUP2 DUP5 PUSH2 0x1758 JUMP JUMPDEST SWAP1 POP SWAP3 SWAP2 POP POP JUMP JUMPDEST PUSH32 0x4E487B7100000000000000000000000000000000000000000000000000000000 PUSH1 0x0 MSTORE PUSH1 0x22 PUSH1 0x4 MSTORE PUSH1 0x24 PUSH1 0x0 REVERT JUMPDEST PUSH1 0x0 PUSH1 0x2 DUP3 DIV SWAP1 POP PUSH1 0x1 DUP3 AND DUP1 PUSH2 0x1836 JUMPI PUSH1 0x7F DUP3 AND SWAP2 POP JUMPDEST PUSH1 0x20 DUP3 LT DUP2 SUB PUSH2 0x1849 JUMPI PUSH2 0x1848 PUSH2 0x17EF JUMP JUMPDEST JUMPDEST POP SWAP2 SWAP1 POP JUMP JUMPDEST PUSH32 0x5A65726F206E6F7420616C6C6F77656400000000000000000000000000000000 PUSH1 0x0 DUP3 ADD MSTORE POP JUMP JUMPDEST PUSH1 0x0 PUSH2 0x1885 PUSH1 0x10 DUP4 PUSH2 0x106B JUMP JUMPDEST SWAP2 POP PUSH2 0x1890 DUP3 PUSH2 0x184F JUMP JUMPDEST PUSH1 0x20 DUP3 ADD SWAP1 POP SWAP2 SWAP1 POP JUMP JUMPDEST PUSH1 0x0 PUSH1 0x20 DUP3 ADD SWAP1 POP DUP2 DUP2 SUB PUSH1 0x0 DUP4 ADD MSTORE PUSH2 0x18B4 DUP2 PUSH2 0x1878 JUMP JUMPDEST SWAP1 POP SWAP2 SWAP1 POP JUMP JUMPDEST PUSH32 0x696E646578206973206F75742D6F662D626F756E640000000000000000000000 PUSH1 0x0 DUP3 ADD MSTORE POP JUMP JUMPDEST PUSH1 0x0 PUSH2 0x18F1 PUSH1 0x15 DUP4 PUSH2 0x106B JUMP JUMPDEST SWAP2 POP PUSH2 0x18FC DUP3 PUSH2 0x18BB JUMP JUMPDEST PUSH1 0x20 DUP3 ADD SWAP1 POP SWAP2 SWAP1 POP JUMP JUMPDEST PUSH1 0x0 PUSH1 0x20 DUP3 ADD SWAP1 POP DUP2 DUP2 SUB PUSH1 0x0 DUP4 ADD MSTORE PUSH2 0x1920 DUP2 PUSH2 0x18E4 JUMP JUMPDEST SWAP1 POP SWAP2 SWAP1 POP JUMP JUMPDEST PUSH32 0x596F7527766520766F74656420616C7265616479000000000000000000000000 PUSH1 0x0 DUP3 ADD MSTORE POP JUMP JUMPDEST PUSH1 0x0 PUSH2 0x195D PUSH1 0x14 DUP4 PUSH2 0x106B JUMP JUMPDEST SWAP2 POP PUSH2 0x1968 DUP3 PUSH2 0x1927 JUMP JUMPDEST PUSH1 0x20 DUP3 ADD SWAP1 POP SWAP2 SWAP1 POP JUMP JUMPDEST PUSH1 0x0 PUSH1 0x20 DUP3 ADD SWAP1 POP DUP2 DUP2 SUB PUSH1 0x0 DUP4 ADD MSTORE PUSH2 0x198C DUP2 PUSH2 0x1950 JUMP JUMPDEST SWAP1 POP SWAP2 SWAP1 POP JUMP JUMPDEST PUSH32 0x4E487B7100000000000000000000000000000000000000000000000000000000 PUSH1 0x0 MSTORE PUSH1 0x32 PUSH1 0x4 MSTORE PUSH1 0x24 PUSH1 0x0 REVERT JUMPDEST PUSH32 0x546869732070726F706F73616C20686173206265656E20616363657074656420 PUSH1 0x0 DUP3 ADD MSTORE PUSH32 0x616C726561647900000000000000000000000000000000000000000000000000 PUSH1 0x20 DUP3 ADD MSTORE POP JUMP JUMPDEST PUSH1 0x0 PUSH2 0x1A1E PUSH1 0x27 DUP4 PUSH2 0x106B JUMP JUMPDEST SWAP2 POP PUSH2 0x1A29 DUP3 PUSH2 0x19C2 JUMP JUMPDEST PUSH1 0x40 DUP3 ADD SWAP1 POP SWAP2 SWAP1 POP JUMP JUMPDEST PUSH1 0x0 PUSH1 0x20 DUP3 ADD SWAP1 POP DUP2 DUP2 SUB PUSH1 0x0 DUP4 ADD MSTORE PUSH2 0x1A4D DUP2 PUSH2 0x1A11 JUMP JUMPDEST SWAP1 POP SWAP2 SWAP1 POP JUMP JUMPDEST PUSH32 0x4E487B7100000000000000000000000000000000000000000000000000000000 PUSH1 0x0 MSTORE PUSH1 0x11 PUSH1 0x4 MSTORE PUSH1 0x24 PUSH1 0x0 REVERT JUMPDEST PUSH1 0x0 PUSH2 0x1A8E DUP3 PUSH2 0x10F0 JUMP JUMPDEST SWAP2 POP PUSH2 0x1A99 DUP4 PUSH2 0x10F0 JUMP JUMPDEST SWAP3 POP DUP3 DUP3 ADD SWAP1 POP PUSH2 0xFFFF DUP2 GT ISZERO PUSH2 0x1AB3 JUMPI PUSH2 0x1AB2 PUSH2 0x1A54 JUMP JUMPDEST JUMPDEST SWAP3 SWAP2 POP POP JUMP JUMPDEST PUSH1 0x0 DUP2 SWAP1 POP SWAP3 SWAP2 POP POP JUMP JUMPDEST PUSH1 0x0 DUP2 SWAP1 POP DUP2 PUSH1 0x0 MSTORE PUSH1 0x20 PUSH1 0x0 KECCAK256 SWAP1 POP SWAP2 SWAP1 POP JUMP JUMPDEST PUSH1 0x0 DUP2 SLOAD PUSH2 0x1AE6 DUP2 PUSH2 0x181E JUMP JUMPDEST PUSH2 0x1AF0 DUP2 DUP7 PUSH2 0x1AB9 JUMP JUMPDEST SWAP5 POP PUSH1 0x1 DUP3 AND PUSH1 0x0 DUP2 EQ PUSH2 0x1B0B JUMPI PUSH1 0x1 DUP2 EQ PUSH2 0x1B20 JUMPI PUSH2 0x1B53 JUMP JUMPDEST PUSH1 0xFF NOT DUP4 AND DUP7 MSTORE DUP2 ISZERO ISZERO DUP3 MUL DUP7 ADD SWAP4 POP PUSH2 0x1B53 JUMP JUMPDEST PUSH2 0x1B29 DUP6 PUSH2 0x1AC4 JUMP JUMPDEST PUSH1 0x0 JUMPDEST DUP4 DUP2 LT ISZERO PUSH2 0x1B4B JUMPI DUP2 SLOAD DUP2 DUP10 ADD MSTORE PUSH1 0x1 DUP3 ADD SWAP2 POP PUSH1 0x20 DUP2 ADD SWAP1 POP PUSH2 0x1B2C JUMP JUMPDEST DUP4 DUP9 ADD SWAP6 POP POP POP JUMPDEST POP POP POP SWAP3 SWAP2 POP POP JUMP JUMPDEST PUSH1 0x0 PUSH2 0x1B68 DUP3 DUP5 PUSH2 0x1AD9 JUMP JUMPDEST SWAP2 POP DUP2 SWAP1 POP SWAP3 SWAP2 POP POP JUMP JUMPDEST PUSH1 0x0 DUP2 SWAP1 POP SWAP2 SWAP1 POP JUMP JUMPDEST PUSH1 0x0 PUSH2 0x1B98 PUSH2 0x1B93 PUSH2 0x1B8E DUP5 PUSH2 0x10F0 JUMP JUMPDEST PUSH2 0x1B73 JUMP JUMPDEST PUSH2 0xFFD JUMP JUMPDEST SWAP1 POP SWAP2 SWAP1 POP JUMP JUMPDEST PUSH2 0x1BA8 DUP2 PUSH2 0x1B7D JUMP JUMPDEST DUP3 MSTORE POP POP JUMP JUMPDEST PUSH1 0x0 PUSH1 0x20 DUP3 ADD SWAP1 POP PUSH2 0x1BC3 PUSH1 0x0 DUP4 ADD DUP5 PUSH2 0x1B9F JUMP JUMPDEST SWAP3 SWAP2 POP POP JUMP JUMPDEST PUSH32 0x496E646578206973206F75742D6F662D626F756E640000000000000000000000 PUSH1 0x0 DUP3 ADD MSTORE POP JUMP JUMPDEST PUSH1 0x0 PUSH2 0x1BFF PUSH1 0x15 DUP4 PUSH2 0x106B JUMP JUMPDEST SWAP2 POP PUSH2 0x1C0A DUP3 PUSH2 0x1BC9 JUMP JUMPDEST PUSH1 0x20 DUP3 ADD SWAP1 POP SWAP2 SWAP1 POP JUMP JUMPDEST PUSH1 0x0 PUSH1 0x20 DUP3 ADD SWAP1 POP DUP2 DUP2 SUB PUSH1 0x0 DUP4 ADD MSTORE PUSH2 0x1C2E DUP2 PUSH2 0x1BF2 JUMP JUMPDEST SWAP1 POP SWAP2 SWAP1 POP JUMP JUMPDEST PUSH32 0x5A65726F2061646472657373206E6F7420616C6C6F7765640000000000000000 PUSH1 0x0 DUP3 ADD MSTORE POP JUMP JUMPDEST PUSH1 0x0 PUSH2 0x1C6B PUSH1 0x18 DUP4 PUSH2 0x106B JUMP JUMPDEST SWAP2 POP PUSH2 0x1C76 DUP3 PUSH2 0x1C35 JUMP JUMPDEST PUSH1 0x20 DUP3 ADD SWAP1 POP SWAP2 SWAP1 POP JUMP JUMPDEST PUSH1 0x0 PUSH1 0x20 DUP3 ADD SWAP1 POP DUP2 DUP2 SUB PUSH1 0x0 DUP4 ADD MSTORE PUSH2 0x1C9A DUP2 PUSH2 0x1C5E JUMP JUMPDEST SWAP1 POP SWAP2 SWAP1 POP JUMP JUMPDEST PUSH1 0x0 PUSH1 0x20 PUSH1 0x1F DUP4 ADD DIV SWAP1 POP SWAP2 SWAP1 POP JUMP JUMPDEST PUSH1 0x0 DUP3 DUP3 SHL SWAP1 POP SWAP3 SWAP2 POP POP JUMP JUMPDEST PUSH1 0x0 PUSH1 0x8 DUP4 MUL PUSH2 0x1CEE PUSH32 0xFFFFFFFFFFFFFFFFFFFFFFFFFFFFFFFFFFFFFFFFFFFFFFFFFFFFFFFFFFFFFFFF DUP3 PUSH2 0x1CB1 JUMP JUMPDEST PUSH2 0x1CF8 DUP7 DUP4 PUSH2 0x1CB1 JUMP JUMPDEST SWAP6 POP DUP1 NOT DUP5 AND SWAP4 POP DUP1 DUP7 AND DUP5 OR SWAP3 POP POP POP SWAP4 SWAP3 POP POP POP JUMP JUMPDEST PUSH1 0x0 PUSH2 0x1D2B PUSH2 0x1D26 PUSH2 0x1D21 DUP5 PUSH2 0xFFD JUMP JUMPDEST PUSH2 0x1B73 JUMP JUMPDEST PUSH2 0xFFD JUMP JUMPDEST SWAP1 POP SWAP2 SWAP1 POP JUMP JUMPDEST PUSH1 0x0 DUP2 SWAP1 POP SWAP2 SWAP1 POP JUMP JUMPDEST PUSH2 0x1D45 DUP4 PUSH2 0x1D10 JUMP JUMPDEST PUSH2 0x1D59 PUSH2 0x1D51 DUP3 PUSH2 0x1D32 JUMP JUMPDEST DUP5 DUP5 SLOAD PUSH2 0x1CBE JUMP JUMPDEST DUP3 SSTORE POP POP POP POP JUMP JUMPDEST PUSH1 0x0 SWAP1 JUMP JUMPDEST PUSH2 0x1D6E PUSH2 0x1D61 JUMP JUMPDEST PUSH2 0x1D79 DUP2 DUP5 DUP5 PUSH2 0x1D3C JUMP JUMPDEST POP POP POP JUMP JUMPDEST JUMPDEST DUP2 DUP2 LT ISZERO PUSH2 0x1D9D JUMPI PUSH2 0x1D92 PUSH1 0x0 DUP3 PUSH2 0x1D66 JUMP JUMPDEST PUSH1 0x1 DUP2 ADD SWAP1 POP PUSH2 0x1D7F JUMP JUMPDEST POP POP JUMP JUMPDEST PUSH1 0x1F DUP3 GT ISZERO PUSH2 0x1DE2 JUMPI PUSH2 0x1DB3 DUP2 PUSH2 0x1AC4 JUMP JUMPDEST PUSH2 0x1DBC DUP5 PUSH2 0x1CA1 JUMP JUMPDEST DUP2 ADD PUSH1 0x20 DUP6 LT ISZERO PUSH2 0x1DCB JUMPI DUP2 SWAP1 POP JUMPDEST PUSH2 0x1DDF PUSH2 0x1DD7 DUP6 PUSH2 0x1CA1 JUMP JUMPDEST DUP4 ADD DUP3 PUSH2 0x1D7E JUMP JUMPDEST POP POP JUMPDEST POP POP POP JUMP JUMPDEST PUSH1 0x0 DUP3 DUP3 SHR SWAP1 POP SWAP3 SWAP2 POP POP JUMP JUMPDEST PUSH1 0x0 PUSH2 0x1E05 PUSH1 0x0 NOT DUP5 PUSH1 0x8 MUL PUSH2 0x1DE7 JUMP JUMPDEST NOT DUP1 DUP4 AND SWAP2 POP POP SWAP3 SWAP2 POP POP JUMP JUMPDEST PUSH1 0x0 PUSH2 0x1E1E DUP4 DUP4 PUSH2 0x1DF4 JUMP JUMPDEST SWAP2 POP DUP3 PUSH1 0x2 MUL DUP3 OR SWAP1 POP SWAP3 SWAP2 POP POP JUMP JUMPDEST PUSH2 0x1E37 DUP3 PUSH2 0x1060 JUMP JUMPDEST PUSH8 0xFFFFFFFFFFFFFFFF DUP2 GT ISZERO PUSH2 0x1E50 JUMPI PUSH2 0x1E4F PUSH2 0x13BB JUMP JUMPDEST JUMPDEST PUSH2 0x1E5A DUP3 SLOAD PUSH2 0x181E JUMP JUMPDEST PUSH2 0x1E65 DUP3 DUP3 DUP6 PUSH2 0x1DA1 JUMP JUMPDEST PUSH1 0x0 PUSH1 0x20 SWAP1 POP PUSH1 0x1F DUP4 GT PUSH1 0x1 DUP2 EQ PUSH2 0x1E98 JUMPI PUSH1 0x0 DUP5 ISZERO PUSH2 0x1E86 JUMPI DUP3 DUP8 ADD MLOAD SWAP1 POP JUMPDEST PUSH2 0x1E90 DUP6 DUP3 PUSH2 0x1E12 JUMP JUMPDEST DUP7 SSTORE POP PUSH2 0x1EF8 JUMP JUMPDEST PUSH1 0x1F NOT DUP5 AND PUSH2 0x1EA6 DUP7 PUSH2 0x1AC4 JUMP JUMPDEST PUSH1 0x0 JUMPDEST DUP3 DUP2 LT ISZERO PUSH2 0x1ECE JUMPI DUP5 DUP10 ADD MLOAD DUP3 SSTORE PUSH1 0x1 DUP3 ADD SWAP2 POP PUSH1 0x20 DUP6 ADD SWAP5 POP PUSH1 0x20 DUP2 ADD SWAP1 POP PUSH2 0x1EA9 JUMP JUMPDEST DUP7 DUP4 LT ISZERO PUSH2 0x1EEB JUMPI DUP5 DUP10 ADD MLOAD PUSH2 0x1EE7 PUSH1 0x1F DUP10 AND DUP3 PUSH2 0x1DF4 JUMP JUMPDEST DUP4 SSTORE POP JUMPDEST PUSH1 0x1 PUSH1 0x2 DUP9 MUL ADD DUP9 SSTORE POP POP POP JUMPDEST POP POP POP POP POP POP JUMP JUMPDEST PUSH1 0x0 PUSH2 0x1F0B DUP3 PUSH2 0x1060 JUMP JUMPDEST PUSH2 0x1F15 DUP2 DUP6 PUSH2 0x1AB9 JUMP JUMPDEST SWAP4 POP PUSH2 0x1F25 DUP2 DUP6 PUSH1 0x20 DUP7 ADD PUSH2 0x107C JUMP JUMPDEST DUP1 DUP5 ADD SWAP2 POP POP SWAP3 SWAP2 POP POP JUMP JUMPDEST PUSH1 0x0 PUSH2 0x1F3D DUP3 DUP5 PUSH2 0x1F00 JUMP JUMPDEST SWAP2 POP DUP2 SWAP1 POP SWAP3 SWAP2 POP POP JUMP JUMPDEST PUSH1 0x0 PUSH1 0x20 DUP3 ADD SWAP1 POP PUSH2 0x1F5D PUSH1 0x0 DUP4 ADD DUP5 PUSH2 0x10FE JUMP JUMPDEST SWAP3 SWAP2 POP POP JUMP INVALID LOG2 PUSH5 0x6970667358 0x22 SLT KECCAK256 0x2A GASPRICE 0xAA BASEFEE 0x2D 0xC2 0x2D ORIGIN 0xB9 0x28 SSTORE 0xAF GASLIMIT CALLCODE BYTE BLOCKHASH BLOBHASH SUB 0xF6 0x23 ISZERO BASEFEE PUSH19 0x658DF01BF66AF123E664736F6C634300081B00 CALLER LOG2 PUSH5 0x6970667358 0x22 SLT KECCAK256 DUP12 POP PC 0x1F DUP4 MCOPY 0x25 XOR 0xE9 SLT 0xDC PUSH27 0xE2C99FA11D9A9D042C219D093BACA542B331A1B664736F6C634300 ADDMOD SHL STOP CALLER "
        },
        "methodIdentifiers": {
          "VoteOnAProposal(address,uint8)": "c707f0cc",
          "createAProposal(address,string,string,uint16)": "2d4747a8",
          "deployClaimFaucet()": "ca5c9c58",
          "getAllContractsDeployed()": "bdb383ec",
          "getAllProposals(address)": "9853d922",
          "getAsingleProposal(address,uint8)": "7dcd0037",
          "getLengthOfDeployedContract()": "ba3ccf09",
          "getUserDeployedContractByIndex(uint8)": "5aefdc3b",
          "getUserDeployedContracts()": "8ff2dd86"
        }
      }
    }
  }
}